:100000000C9462000C948A000C948A000C948A0070
:100010000C948A000C948A000C948A000C948A0038
:100020000C948A000C948A000C948A000C948A0028
:100030000C948A000C948A000C948A000C948A0018
:100040000C94F4020C948A000C948A000C948A009C
:100050000C948A000C948A000C948A000C948A00F8
:100060000C948A000C948A000000000023002600F3
:10007000290000000000240027002A0000000000E2
:10008000250028002B0004040404040404040202D4
:100090000202020203030303030301020408102007
:1000A0004080010204081020010204081020000012
:1000B0000008000201000003040700000000000027
:1000C0000000EB0411241FBECFEFD8E0DEBFCDBF90
:1000D00021E0A2E8B1E001C01D92AB3EB207E1F71A
:1000E00011E0A0E0B1E0E6E3F0E102C005900D927E
:1000F000A238B107D9F710E0C2E6D0E004C02197DA
:10010000FE010E941906C136D107C9F70E943E03BD
:100110000C9419080C940000833081F028F481308D
:1001200099F08230A9F008958730A9F08830C9F09D
:100130008430B1F4809180008F7D03C08091800075
:100140008F7780938000089584B58F7784BD08955C
:1001500084B58F7DFBCF8091B0008F778093B00006
:1001600008958091B0008F7DF9CF1F93CF93DF93D7
:10017000282F30E0F901E255FF4F8491F901E6564E
:10018000FF4FD491F901EA57FF4FC491CC23A9F056
:10019000162F81110E948C00EC2FF0E0EE0FFF1F54
:1001A000E458FF4FA591B4918FB7F894EC911111D9
:1001B00008C0D095DE23DC938FBFDF91CF911F91D4
:1001C0000895DE2BF8CFCF93DF9390E0FC01E65645
:1001D000FF4F24918A579F4FFC0184918823D1F0CF
:1001E00090E0880F991FFC01EE58FF4FA591B49144
:1001F000FC01E458FF4FC591D49161110EC09FB727
:10020000F8948C91E22FE0958E238C932881E22341
:10021000E8839FBFDF91CF9108958FB7F894EC9159
:10022000E22BEC938FBFF6CF3FB7F89480918B0110
:1002300090918C01A0918D01B0918E0126B5A89B63
:1002400005C02F3F19F00196A11DB11D3FBFBA2F68
:10025000A92F982F8827BC01CD01620F711D811D28
:10026000911D42E0660F771F881F991F4A95D1F7AD
:1002700008958F929F92AF92BF92CF92DF92EF92AA
:10028000FF924B015C010E9414016B017C010E94F2
:1002900014016C197D098E099F09683E7340810520
:1002A0009105A8F321E0821A9108A108B10888EE0F
:1002B000C80E83E0D81EE11CF11C81149104A10436
:1002C000B10429F7FF90EF90DF90CF90BF90AF90EF
:1002D0009F908F900895CF92DF92EF92FF920F93AD
:1002E0001F93CF93DF9300D0CDB7DEB769834A83E6
:1002F000880F991F0091E5011091E601000F111F71
:10030000EFE8F1E09F012F5831402017310714F436
:100310001192F8CF2981FC01E157FE4F21838A8198
:10032000808360E08091E3010E94B5001016110601
:1003300004F501501109F801E157FE4FE080D0901B
:10034000E101C090DF0188E0F82E6E2D661F662760
:10035000661F8C2D0E94B500EE0C61E08D2D0E9471
:10036000B50060E08D2D0E94B500FA94F110EDCF3C
:10037000DDCF61E08091E3010F900F90DF91CF918D
:100380001F910F91FF90EF90DF90CF900C94B500EC
:10039000EF92FF920F931F93CF937C018C0183E028
:1003A000000F111F8A95E1F701561E4FC1E0F801B9
:1003B00011928F0140E06C2FC7010E946B01CF5F4B
:1003C000C930A9F7CF911F910F91FF90EF90089539
:1003D0008091E5019091E6011816190624F490E049
:1003E00080E00C94C8010895FC0180819181009700
:1003F00011F00C94BB0608950F931F93CF93DF93D6
:10040000EC0188819981009759F02A813B81261758
:10041000370730F081E0DF91CF911F910F91089560
:100420008B016F5F7F4F0E944407009759F09983BB
:1004300088831B830A832C813D81232B59F7FC0180
:100440001082E8CF80E0E7CFCF92DF92EF92FF9269
:100450000F931F93CF93DF93CDB7DEB762970FB69D
:10046000F894DEBF0FBECDBF8C01CB01F801118225
:10047000108213821282158214824AE09E012F5F3D
:100480003F4F6901B9010E946305F6010190002008
:10049000E9F731977F01EC18FD08B701C8010E9408
:1004A000FC01F8012081318181111CC02115310529
:1004B00019F0C9010E94BB06F80111821082158251
:1004C00014821382128262960FB6F894DEBF0FBEBA
:1004D000CDBFDF91CF911F910F91FF90EF90DF90F3
:1004E000CF900895F582E482B601C9010E941208F6
:1004F000EACFEF92FF920F931F93CF93DF93611593
:10050000710541F480E0DF91CF911F910F91FF9031
:10051000EF90089541155105B1F07B01EC010C817C
:100520001D81040F151FB8010E94FC01882351F39F
:10053000288139818C819D81B701820F931F0E9490
:1005400012081D830C8381E0DECFFB0101900020A7
:10055000E9F73197AF01461B570B0C947902EF92E4
:10056000FF920F931F93CF93DF93EC010E94E8015A
:10057000FE0101900020E9F731977F01EC1AFD0A96
:100580008E01D0E0C0E0CE15DF053CF5C830D105C6
:1005900021F1F80181918F01082E000C990B0E9426
:1005A0000108809740E08034910520F4845E9E4FDE
:1005B000FC0140818091E5019091E6011816190631
:1005C00054F4FE01E157FE4F408B6C2F6F5F90E0BB
:1005D00080E00E946B012196D6CFDF91CF911F91D1
:1005E0000F91FF90EF9008951F920F920FB60F9208
:1005F00011242F933F938F939F93AF93BF93809139
:10060000870190918801A0918901B0918A01309170
:10061000860123E0230F2D3758F50196A11DB11D4A
:10062000209386018093870190938801A09389018C
:10063000B0938A0180918B0190918C01A0918D01E2
:10064000B0918E010196A11DB11D80938B019093F5
:100650008C01A0938D01B0938E01BF91AF919F91BA
:100660008F913F912F910F900FBE0F901F90189573
:1006700026E8230F0296A11DB11DD2CFCF93DF93A1
:10068000CDB7DEB766970FB6F894DEBF0FBECDBF0D
:10069000789484B5826084BD84B5816084BD85B55D
:1006A000826085BD85B5816085BD80916E00816069
:1006B00080936E001092810080918100826080930F
:1006C0008100809181008160809381008091800011
:1006D0008160809380008091B10084608093B1003C
:1006E0008091B00081608093B00080917A00846036
:1006F00080937A0080917A00826080937A00809162
:100700007A00816080937A0080917A00806880937B
:100710007A001092C10080E1E6E0F1E0DE0111967E
:1007200001900D928A95E1F786E0E6E1F1E0DE01C5
:10073000519601900D928A95E1F7CE0101967C01C8
:100740008E010F5E1F4FF7018081F2E0EF0EF11C6A
:1007500060E00E94E3000E151F05A9F761E089899A
:100760000E94E30061E08B890E94E30061E08D89D3
:100770000E94E3008091E5019091E60118161906A8
:1007800034F441E06CE090E080E00E946B018091E5
:10079000E5019091E6011816190634F448E06AE084
:1007A00090E080E00E946B018091E5019091E6016C
:1007B0001816190624F490E080E00E94C8018CE528
:1007C00091E00E94AF026CED75E080E090E00E9445
:1007D00039010E94E80182E691E00E94AF026CEDCF
:1007E00075E080E090E00E9439018BE691E00E9484
:1007F000AF0260ED77E080E090E00E9439010E9456
:10080000E8012FB7F8948091870190918801A09119
:100810008901B0918A012FBF909383018093820157
:1008200098EE492E93E0592E612C712C2FE0222E48
:10083000312C3CE3A32EB12C40E0842E40E0942EDA
:100840002FB7F89460918701709188018091890198
:1008500090918A012FBFC0908201D09083010D2C0E
:10086000000CEE08FF086C197D098E099F09A30191
:1008700092010E94E305C101821B930B90938501B5
:1008800080938401B5010E94CF056B017C011A8A17
:10089000198A1C8A1B8A1E8A1D8A70E060E0C801C2
:1008A0000E94FC0129893A8981116DC02115310509
:1008B00019F0C9010E94BB061A8A198A1E8A1D8A6C
:1008C0001C8A1B8A8AE0C816D1042CF461E771E007
:1008D000C8010E94A502B601CE0101960E94240221
:1008E0004D815E8169817A81C8010E947902CE01C1
:1008F00001960E94F40163E771E0C8010E94A5021D
:100900009AE0E916F1042CF461E771E0C8010E9455
:10091000A502B701CE0101960E9424024D815E819D
:1009200069817A81C8010E947902CE0101960E94F4
:10093000F40189899A890E94AF02C8010E94F401DA
:10094000E5EBF0E08491E1EAF0E0E490EDE8F0E03E
:10095000F490FF2001F181110E948C00EF2DF0E056
:10096000EE0FFF1FE859FF4FA591B4918C91E8223B
:1009700091F080918401909185011816190624F157
:100980008AE791E00AC01E8A1D8A61E871E0C90108
:100990000E94120897CF85E791E00E94AF0268EEAF
:1009A00073E080E090E00E9439012FB7F8948091C5
:1009B000870190918801A0918901B0918A012FBF90
:1009C00090938301809382018114910409F438CFBC
:1009D0000E94000035CFCF93DF93CBE0D0E0D093DF
:1009E000E001C093DF018DE090E09093E2018093FD
:1009F000E1018AE090E09093E4018093E30181E0DB
:100A000090E09093E6018093E50161E08BE00E9425
:100A1000E30061E08091E1010E94E30061E08091E8
:100A2000E3010E94E30061E08091E3010E94B500D0
:100A3000D093E001C093DF01EFE9F1E0119281E092
:100A4000EF3DF807D9F7D0E0C0E08091E501909143
:100A5000E601C817D90774F540E06FE0CE010E94A7
:100A60006B018091E5019091E601C817D9072CF43C
:100A700047E06BE0CE010E946B0140E069E0CE01EF
:100A80000E946B018091E5019091E601C817D9079A
:100A90001CF4CE010E94C8018091E5019091E6010D
:100AA000C817D9072CF440E06CE0CE010E946B011E
:100AB0002196CBCF8FE090E09093850180938401C5
:100AC000DF91CF910895BB274A3031F4992322F466
:100AD000BDE2909581959F4F0C946F05BB27FB015C
:100AE0005527AA27880F991FAA1FA41710F0A41B27
:100AF00083955051B9F7A05DAA3308F0A95DA19381
:100B0000009779F7B111B1931192CB010C9488053C
:100B1000DC01FC01672F71917723E1F7329704C064
:100B20007C916D9370836291AE17BF07C8F30895EF
:100B30002F923F924F925F926F927F928F929F92ED
:100B4000AF92BF92CF92DF92EF92FF920F931F93DB
:100B5000CF93DF93CDB7DEB7CA1BDB0B0FB6F8948C
:100B6000DEBF0FBECDBF09942A88398848885F84CC
:100B70006E847D848C849B84AA84B984C884DF803D
:100B8000EE80FD800C811B81AA81B981CE0FD11D21
:100B90000FB6F894DEBF0FBECDBFED01089597FBF1
:100BA000072E16F4009407D077FD09D00E940506A1
:100BB00007FC05D03EF4909581959F4F0895709560
:100BC00061957F4F0895A1E21A2EAA1BBB1BFD0160
:100BD0000DC0AA1FBB1FEE1FFF1FA217B307E4071C
:100BE000F50720F0A21BB30BE40BF50B661F771F74
:100BF000881F991F1A9469F7609570958095909554
:100C00009B01AC01BD01CF010895AA1BBB1B51E1A3
:100C100007C0AA1FBB1FA617B70710F0A61BB70B6C
:100C2000881F991F5A95A9F780959095BC01CD0111
:100C30000895EE0FFF1F0590F491E02D09940F9396
:100C40001F93CF93DF938230910510F482E090E000
:100C5000E091E901F091EA0130E020E0B0E0A0E0AD
:100C6000309799F42115310509F44AC0281B390B36
:100C700024303105D8F58A819B816115710589F190
:100C8000FB0193838283FE0111C040815181028167
:100C9000138148175907E0F04817590799F410973E
:100CA00061F012960C93129713961C933296CF0113
:100CB000DF91CF911F910F9108950093E901109357
:100CC000EA01F4CF2115310551F04217530738F0EE
:100CD000A901DB019A01BD01DF01F801C1CFEF01DC
:100CE000F9CF9093EA018093E901CDCFFE01E20FA5
:100CF000F31F819391932250310939832883D7CFF1
:100D00002091E7013091E801232B41F42091020169
:100D1000309103013093E8012093E7012091000115
:100D2000309101012115310541F42DB73EB74091B5
:100D3000040150910501241B350BE091E701F0916E
:100D4000E801E217F307A0F42E1B3F0B2817390721
:100D500078F0AC014E5F5F4F2417350748F04E0F17
:100D60005F1F5093E8014093E701819391939FCFD8
:100D7000F0E0E0E09CCFCF93DF930097E9F0FC0137
:100D8000329713821282A091E901B091EA01ED013C
:100D900030E020E01097A1F420813181820F931F71
:100DA0002091E7013091E8012817390709F061C067
:100DB000F093E801E093E701DF91CF910895EA0114
:100DC000CE17DF07E8F54A815B819E014115510589
:100DD000B1F7E901FB83EA8349915991C40FD51F0B
:100DE000EC17FD0761F4808191810296840F951FB5
:100DF000E90199838883828193819B838A83F0E0D0
:100E0000E0E012968D919C9113970097B9F52D9182
:100E10003C911197CD010296820F931F2091E7011B
:100E20003091E8012817390739F6309751F51092BB
:100E3000EA011092E901B093E801A093E701BCCF69
:100E4000D383C28340815181840F951FC817D9076E
:100E500061F44E5F5F4F88819981480F591F51831C
:100E600040838A819B81938382832115310509F018
:100E7000B0CFF093EA01E093E9019ECFFD01DC01E0
:100E8000C0CF13821282D7CFB0E0A0E0EAE4F7E04F
:100E90000C949A058C01009751F4CB010E941F0617
:100EA0008C01C801CDB7DEB7E0E10C94B605FC01BA
:100EB000E60FF71F9C0122503109E217F30708F4EF
:100EC0009DC0D901CD91DC911197C617D70798F035
:100ED000C530D10530F3CE0104978617970708F384
:100EE000C61BD70B2297C193D1936D937C93CF01EF
:100EF0000E94BB06D6CF5B01AC1ABD0A4C018C0E1A
:100F00009D1EA091E901B091EA01512C412CF12CD8
:100F1000E12C109731F58091E7019091E801881557
:100F2000990509F05CC04616570608F058C0809134
:100F3000000190910101009741F48DB79EB7409157
:100F4000040150910501841B950BE817F90708F07F
:100F500055C0F093E801E093E701F90171836083E4
:100F6000A0CF8D919C91119712966C901297139629
:100F70007C901397A815B90559F56C0142E0C40E91
:100F8000D11CCA14DB0420F1AC014A195B09DA0157
:100F90001296159780F06282738251834083D90143
:100FA0006D937C93E114F10471F0D7011396FC93D7
:100FB000EE93129776CF22968C0F9D1FF9019183A5
:100FC0008083F301EFCFF093EA01E093E90169CF69
:100FD0004816590608F42C017D01D3019ACFCB01A4
:100FE0000E941F067C01009749F0AE01B8010E94E3
:100FF0000908C8010E94BB06870153CF10E000E03A
:1010000050CF9111089581568A5108F48052855825
:101010000895FB01DC0102C001900D924150504047
:10102000D8F70895FB01DC0101900D920020E1F753
:061030000895F894FFCFC3
:101036000000EB0180000C0007000800090000001A
:101046000100020003000400050006000000000085
:101056000000000000000000000100007E306D79F5
:10106600335B5F707F7B00000000006B00771F4ED4
:101076003D4F475E37303C000E76257E6700055BA8
:101086000F3E0000000000000000000848454C4CE0
:101096004F004A455520535449430074656D70739B
:1010A6000030002D00627532320065636F756C6525
:0210B600200018
:00000001FF
