:100000000C9463000C948B000C948B000C948B006C
:100010000C948B000C948B000C948B000C948B0034
:100020000C948B000C948B000C948B000C948B0024
:100030000C948B000C948B000C948B000C948B0014
:100040000C9457030C948B000C948B000C948B0035
:100050000C948B000C948B000C948B000C948B00F4
:100060000C948B000C948B000000000024002700EF
:100070002A0000000000250028002B0000000000DE
:1000800023002600290004040404040404040202DA
:100090000202020203030303030301020408102007
:1000A0004080010204081020010204081020000012
:1000B0000008000201000003040700000000000027
:1000C0000000C006520711241FBECFEFD8E0DEBFEC
:1000D000CDBF22E0A2EAB1E001C01D92AD34B2076B
:1000E000E1F711E0A0E0B1E0EAE4F4E102C005903C
:1000F0000D92A23AB107D9F710E0C2E6D0E004C0F1
:100100002197FE010E941808C136D107C9F70E9445
:10011000A1030C94180A0C940000833081F028F499
:10012000813099F08230A9F008958730A9F08830A5
:10013000C9F08430B1F4809180008F7D03C080913C
:1001400080008F7780938000089584B58F7784BD79
:10015000089584B58F7DFBCF8091B0008F77809319
:10016000B00008958091B0008F7DF9CFCF93DF93D9
:10017000282F30E0F901E255FF4F8491F901E6564E
:10018000FF4FD491F901EA57FF4FC491CC23A1F05E
:1001900081110E948D00EC2FF0E0EE0FFF1FE4585C
:1001A000FF4FA591B491EC91ED2381E090E009F42B
:1001B00080E0DF91CF91089580E090E0FACF1F9327
:1001C000CF93DF93282F30E0F901E255FF4F849160
:1001D000F901E656FF4FD491F901EA57FF4FC49158
:1001E000CC23A9F0162F81110E948D00EC2FF0E096
:1001F000EE0FFF1FEE58FF4FA591B4918FB7F89403
:10020000EC91111108C0D095DE23DC938FBFDF91F4
:10021000CF911F910895DE2BF8CFCF93DF9390E01D
:10022000FC01E656FF4F24918A579F4FFC018491B1
:100230008823D1F090E0880F991FFC01E859FF4F07
:10024000A591B491FC01EE58FF4FC591D491623055
:1002500071F49FB7F8943C91822F809583238C93FF
:10026000E8812E2B28839FBFDF91CF9108958FB710
:10027000F894EC912E2B2C938FBFF6CF3FB7F894C8
:100280008091ED019091EE01A091EF01B091F0010C
:1002900026B5A89B05C02F3F19F00196A11DB11DE1
:1002A0003FBFBA2FA92F982F8827BC01CD01620F1D
:1002B000711D811D911D42E0660F771F881F991FD8
:1002C0004A95D1F708958F929F92AF92BF92CF92A5
:1002D000DF92EF92FF924B015C010E943E016B01A5
:1002E0007C010E943E016C197D098E099F09683EC0
:1002F000734081059105A8F321E0821A9108A108B5
:10030000B10888EEC80E83E0D81EE11CF11C8114F0
:100310009104A104B10429F7FF90EF90DF90CF90F2
:10032000BF90AF909F908F9008952FB7F8946091F1
:10033000E9017091EA018091EB019091EC012FBFEE
:100340000895CF92DF92EF92FF920F931F93CF9376
:10035000DF9300D0CDB7DEB769834A83880F991F3A
:100360000091470210914802000F111FE1EFF1E0E8
:100370009F01215F31402017310714F41192F8CF0B
:100380002981FC01EF50FE4F21838A81808360E048
:10039000809145020E94DF001016110604F50150FD
:1003A0001109F801EF50FE4FE080D0904302C09059
:1003B000410288E0F82E6E2D661F6627661F8C2D81
:1003C0000E94DF00EE0C61E08D2D0E94DF0060E0F6
:1003D0008D2D0E94DF00FA94F110EDCFDDCF61E0AA
:1003E000809145020F900F90DF91CF911F910F9157
:1003F000FF90EF90DF90CF900C94DF00EF92FF9290
:100400000F931F93CF937C018C0183E0000F111F8A
:100410008A95E1F70F5F1D4FC1E0F80111928F013E
:1004200040E06C2FC7010E94A101CF5FC930A9F73E
:10043000CF911F910F91FF90EF9008958091470207
:10044000909148021816190624F490E080E00C946C
:10045000FE0108950F931F93CF93DF93EC018881E2
:100460009981009759F02A813B812617370730F090
:1004700081E0DF91CF911F910F9108958B016F5F04
:100480007F4F0E944309009759F0998388831B830B
:100490000A832C813D81232B59F7FC011082E8CF80
:1004A00080E0E7CFEF92FF920F931F93CF93DF93FC
:1004B0006115710541F480E0DF91CF911F910F919B
:1004C000FF90EF90089541155105B1F07B01EC01CB
:1004D0000C811D81040F151FB8010E942A02882378
:1004E00051F3288139818C819D81B701820F931F3F
:1004F0000E94110A1D830C8381E0DECFFB01019075
:100500000020E9F73197AF01461B570B0C945202BC
:10051000CF93DF93EC0188819981009711F00E94BD
:10052000BA08198218821D821C821B821A82DF91EE
:10053000CF910895EF92FF920F931F93CF93DF9384
:10054000EC017B018A01BA010E942A0281110BC0D1
:10055000CE010E948802CE01DF91CF911F910F91B1
:10056000FF90EF9008951D830C83B70188819981D6
:100570000E94110AF0CFEF92FF920F931F93CF9337
:10058000DF93CDB7DEB762970FB6F894DEBF0FBE2C
:10059000CDBF8C01CB01F80111821082138212822F
:1005A000158214824AE09E012F5F3F4F7901B90105
:1005B0000E946207F70101900020E9F73197AF012F
:1005C0004E195F09B701C8010E949A0262960FB6E0
:1005D000F894DEBF0FBECDBFDF91CF911F910F9179
:1005E000FF90EF900895CF93DF93EC01FB01861706
:1005F000970749F0608171816115710541F044816F
:1006000055810E949A02CE01DF91CF9108950E94F8
:100610008802F9CFFC0180819181009711F00C9440
:10062000BA080895EF92FF920F931F93CF93DF9331
:10063000EC010E941E02FE0101900020E9F73197B3
:100640007F01EC1AFD0A8E01D0E0C0E0CE15DF0577
:100650003CF5C830D10521F1F80181918F01082EB8
:10066000000C990B0E94000A809740E080349105AD
:1006700020F4805E9E4FFC01408180914702909162
:1006800048021816190654F4FE01EF50FE4F408B35
:100690006C2F6F5F90E080E00E94A1012196D6CF81
:1006A000DF91CF911F910F91FF90EF9008951F92CE
:1006B0000F920FB60F9211242F933F938F939F9316
:1006C000AF93BF938091E9019091EA01A091EB0172
:1006D000B091EC013091E80123E0230F2D3758F55C
:1006E0000196A11DB11D2093E8018093E90190932B
:1006F000EA01A093EB01B093EC018091ED019091A0
:10070000EE01A091EF01B091F0010196A11DB11D84
:100710008093ED019093EE01A093EF01B093F0016F
:10072000BF91AF919F918F913F912F910F900FBEED
:100730000F901F90189526E8230F0296A11DB11D5A
:10074000D2CFCF93DF93CDB7DEB76C970FB6F894C7
:10075000DEBF0FBECDBF789484B5826084BD84B502
:10076000816084BD85B5826085BD85B5816085BDAC
:1007700080916E00816080936E0010928100809164
:1007800081008260809381008091810081608093EC
:100790008100809180008160809380008091B10011
:1007A00084608093B1008091B00081608093B0003C
:1007B00080917A00846080937A0080917A008260D0
:1007C00080937A0080917A00816080937A00809192
:1007D0007A00806880937A001092C10080E1E8E09E
:1007E000F1E0DE01119601900D928A95E1F7CE01BC
:1007F00001967C018E010F5E1F4FF7018081F2E0B0
:10080000EF0EF11C62E00E940D010E151F05A9F705
:1008100061E086E00E940D0161E084E00E940D012C
:1008200061E085E00E940D018091470290914802AD
:100830001816190634F441E06CE090E080E00E9464
:10084000A10180914702909148021816190634F4CC
:1008500048E06AE090E080E00E94A10180914702B8
:10086000909148021816190624F490E080E00E9446
:10087000FE0180E691E00E9412036CED75E080E0DD
:1008800090E00E9463010E941E0288E691E00E94AF
:1008900012036CED75E080E090E00E946301EE24AD
:1008A000E394F12C54E0C52ED12C82E00E94B600D6
:1008B000892B09F472C06091000170910101CE0191
:1008C00001960E94BB021A8A198A1C8A1B8A1E8AF8
:1008D0001D8A47E050E061E771E0C8010E949A027A
:1008E0004D815E8169817A81C8010E945202811125
:1008F00003C0C8010E948802188E1F8A1A8E198EA2
:100900001C8E1B8EB801CE0147960E94F302C801CF
:100910000E940A03CE0101960E940A038F89988DD6
:100920000E94120381E00E94B600892BD9F468EC82
:1009300070E080E090E00E9463018091000190915E
:100940000101019790930101809300011816190687
:1009500024F0D0920101C0920001CE0147960E947E
:100960000A03A3CF80E00E94B600892BB1F768ECA0
:1009700070E080E090E00E9463018091000190911E
:1009800001010196909301018093000105972CF3DA
:10099000F0920101E0920001E0CF0E941E020E944D
:1009A00095016093A2017093A3018093A401909399
:1009B000A50198EE892E93E0992EA12CB12C28EC5C
:1009C000422E512C38EC332E0E949501C090A2018A
:1009D000D090A301E090A401F090A5016C197D09CD
:1009E0008E099F09A50194010E94E2078FE090E023
:1009F000821B930B9093E7018093E6016CE370E018
:100A00000E94CE076B017C01188E1F8A1A8E198EE8
:100A10001C8E1B8E50E040E062E871E0CE014796EC
:100A20000E949A028AE0C816D10434F469E771E0A2
:100A3000CE0147960E947E02B601C8010E94BB0209
:100A40004D895E8969897A89CE0147960E94520252
:100A5000C8010E940A036BE771E0CE0147960E942D
:100A60007E029AE0E916F10434F469E771E0CE0100
:100A700047960E947E02B701C8010E94BB024D89C1
:100A80005E8969897A89CE0147960E945202C8011F
:100A90000E940A038F89988D0E941203CE01479607
:100AA0000E940A0388E0E8E1F1E0DE01119601907E
:100AB0000D928A95E1F7FE0131966F01F12CE12C40
:100AC0006090000170900101E614F7040CF02BC156
:100AD000F6018081F2E0CF0ED11C0E94B600892B76
:100AE00009F01DC11A8A198A1C8A1B8A1E8A1D8A4E
:100AF00045E050E06DE771E0C8010E949A0284E091
:100B0000EE0CFF1C8A95E1F7F701EA55FE4F448190
:100B1000558160817181C8010E945202811103C018
:100B2000C8010E948802188E1F8A1A8E198E1C8E88
:100B30001B8EB801CE0147960E94F302C8010E94A5
:100B40000A038F89988D0E94120368EC70E080E0A0
:100B500090E00E94630161E086E00E940D01E4EBF9
:100B6000F0E08491833009F49CC050F48130D1F0DE
:100B7000823009F491C061E086E00E94DF0016C077
:100B8000873009F498C0883009F49DC0843099F703
:100B90008091800080628093800050928B00409210
:100BA0008A0004C084B5806884BD37BC64E670E008
:100BB00080E090E00E94630161E086E00E940D0108
:100BC00060E086E00E94DF000E9495016093A20130
:100BD0007093A3018093A4019093A501CE01479641
:100BE0000E940A0383E891E00E941203C7018A551C
:100BF0009E4F7C013C0198E0690E711C6701ECE09E
:100C0000CE0ED11CF6E0EF0EF11C82E00E94B60081
:100C1000892B09F060C0F701808191810196918351
:100C20008083F60180819181A281B3810A96A11D02
:100C3000B11D80839183A283B3838BE891E00E94EE
:100C4000120361E084E00E94DF0060E085E00E9422
:100C5000DF0068EE73E080E090E00E946301212CE9
:100C600060E084E00E94DF0060E085E00E94DF0039
:100C70002110CBCF0E9495016093A2017093A30134
:100C80008093A4019093A50180E090E0892B09F462
:100C90009BCE0E94000098CE84B5806284BD38BC93
:100CA00085CF809180008068809380005092890079
:100CB000409288007BCF8091B00080688093B00024
:100CC0003092B30073CF8091B00080628093B00007
:100CD0003092B4006BCF83E00E94B60022242394AC
:100CE000892B09F0BDCFF301808191810196918319
:100CF0008083F60180819181A281B3810597A1094A
:100D0000B10980839183A283B38383E991E00E9438
:100D1000120360E084E00E94DF0061E097CFFFEF04
:100D2000EF1AFF0ACDCE8091E6019091E7011816E7
:100D300019060CF4A9CF8BE991E00E94120368EE2A
:100D400073E080E090E00E9463010E94950160934F
:100D5000A2017093A3018093A4019093A501E6EAF8
:100D6000F1E090E080E0861597050CF08DCF2285AC
:100D700033852F5F3F4F3387228701967096F3CFDD
:100D80000F931F93CF93DF93CBE0D0E0D093420239
:100D9000C09341028DE090E090934402809343021F
:100DA0008AE090E0909346028093450281E090E0D3
:100DB000909348028093470261E08BE00E940D010E
:100DC00061E0809143020E940D0161E08091450243
:100DD0000E940D0161E0809145020E94DF00D093E6
:100DE0004202C0934102E1E0F2E081E492E011921C
:100DF0008E179F07E1F7D0E0C0E080914702909105
:100E00004802C817D90774F540E06FE0CE010E9490
:100E1000A1018091470290914802C817D9072CF48C
:100E200047E06BE0CE010E94A10140E069E0CE0105
:100E30000E94A1018091470290914802C817D907EA
:100E40001CF4CE010E94FE0180914702909148025D
:100E5000C817D9072CF440E06CE0CE010E94A10134
:100E60002196CBCF8FE090E09093E7018093E6014D
:100E7000C6EAD1E006EE11E0198218821B821A82BE
:100E80001D821C8250E040E062E871E0CE010E94C9
:100E90009A0260960C171D0779F7DF91CF911F9189
:100EA0000F91089586ED91E00E940A0386EC91E08F
:100EB0000E940A0386EB91E00E940A0386EA91E011
:100EC0000C940A03BB274A3031F4992322F4BDE283
:100ED000909581959F4F0C946E07BB27FB0155277A
:100EE000AA27880F991FAA1FA41710F0A41B839587
:100EF0005051B9F7A05DAA3308F0A95DA1930097FE
:100F000079F7B111B1931192CB010C948707DC01F1
:100F1000FC01672F71917723E1F7329704C07C9130
:100F20006D9370836291AE17BF07C8F308952F9237
:100F30003F924F925F926F927F928F929F92AF9269
:100F4000BF92CF92DF92EF92FF920F931F93CF93B6
:100F5000DF93CDB7DEB7CA1BDB0B0FB6F894DEBF4D
:100F60000FBECDBF09942A88398848885F846E8473
:100F70007D848C849B84AA84B984C884DF80EE80BD
:100F8000FD800C811B81AA81B981CE0FD11D0FB6C6
:100F9000F894DEBF0FBECDBFED01089597FB072E7D
:100FA00016F4009407D077FD09D00E94040807FCCE
:100FB00005D03EF4909581959F4F08957095619569
:100FC0007F4F0895A1E21A2EAA1BBB1BFD010DC085
:100FD000AA1FBB1FEE1FFF1FA217B307E407F507E9
:100FE00020F0A21BB30BE40BF50B661F771F881FC5
:100FF000991F1A9469F760957095809590959B015B
:10100000AC01BD01CF010895AA1BBB1B51E107C074
:10101000AA1FBB1FA617B70710F0A61BB70B881F88
:10102000991F5A95A9F780959095BC01CD01089517
:10103000EE0FFF1F0590F491E02D09940F931F937D
:10104000CF93DF938230910510F482E090E0E0913D
:101050004B02F0914C0230E020E0B0E0A0E030978D
:1010600099F42115310509F44AC0281B390B2430A5
:101070003105D8F58A819B816115710589F1FB01E4
:1010800093838283FE0111C04081518102811381CB
:1010900048175907E0F04817590799F4109761F07D
:1010A00012960C93129713961C933296CF01DF91F0
:1010B000CF911F910F91089500934B0210934C0212
:1010C000F4CF2115310551F04217530738F0A9012B
:1010D000DB019A01BD01DF01F801C1CFEF01F9CFBA
:1010E00090934C0280934B02CDCFFE01E20FF31F91
:1010F000819391932250310939832883D7CF20914E
:10110000490230914A02232B41F42091040130918D
:10111000050130934A022093490220910201309147
:1011200003012115310541F42DB73EB74091060169
:1011300050910701241B350BE0914902F0914A02BE
:10114000E217F307A0F42E1B3F0B2817390778F09E
:10115000AC014E5F5F4F2417350748F04E0F5F1FFD
:1011600050934A0240934902819391939FCFF0E0BC
:10117000E0E09CCFCF93DF930097E9F0FC0132973A
:1011800013821282A0914B02B0914C02ED0130E02B
:1011900020E01097A1F420813181820F931F2091CC
:1011A000490230914A022817390709F061C0F093CB
:1011B0004A02E0934902DF91CF910895EA01CE17E8
:1011C000DF07E8F54A815B819E0141155105B1F7C2
:1011D000E901FB83EA8349915991C40FD51FEC17AC
:1011E000FD0761F4808191810296840F951FE901CA
:1011F00099838883828193819B838A83F0E0E0E0F6
:1012000012968D919C9113970097B9F52D913C9171
:101210001197CD010296820F931F209149023091C0
:101220004A022817390739F6309751F510924C02C7
:1012300010924B02B0934A02A0934902BCCFD383D1
:10124000C28340815181840F951FC817D90761F46B
:101250004E5F5F4F88819981480F591F51834083AA
:101260008A819B81938382832115310509F0B0CF58
:10127000F0934C02E0934B029ECFFD01DC01C0CF06
:1012800013821282D7CFB0E0A0E0E9E4F9E00C9439
:1012900099078C01009751F4CB010E941E088C0124
:1012A000C801CDB7DEB7E0E10C94B507FC01E60F4D
:1012B000F71F9C0122503109E217F30708F49DC083
:1012C000D901CD91DC911197C617D70798F0C53099
:1012D000D10530F3CE0104978617970708F3C61B94
:1012E000D70B2297C193D1936D937C93CF010E942A
:1012F000BA08D6CF5B01AC1ABD0A4C018C0E9D1EFC
:10130000A0914B02B0914C02512C412CF12CE12CBC
:10131000109731F58091490290914A0288159905FC
:1013200009F05CC04616570608F058C080910201CB
:1013300090910301009741F48DB79EB7409106014B
:1013400050910701841B950BE817F90708F055C069
:10135000F0934A02E0934902F90171836083A0CFC0
:101360008D919C91119712966C90129713967C9088
:101370001397A815B90559F56C0142E0C40ED11CAC
:10138000CA14DB0420F1AC014A195B09DA01129698
:10139000159780F06282738251834083D9016D93E7
:1013A0007C93E114F10471F0D7011396FC93EE9352
:1013B000129776CF22968C0F9D1FF901918380831F
:1013C000F301EFCFF0934C02E0934B0269CF481644
:1013D000590608F42C017D01D3019ACFCB010E945C
:1013E0001E087C01009749F0AE01B8010E94080A6E
:1013F000C8010E94BA08870153CF10E000E050CF27
:101400009111089581568A5108F4805285580895A3
:10141000FB01DC0102C001900D9241505040D8F711
:101420000895FB01DC0101900D920020E1F7089581
:1014300010E0C2E6D0E004C0FE010E941808219628
:0A144000C336D107C9F7F894FFCFB7
:10144A00040000004D0280000700080009000C009B
:10145A0002000300010000000700080009000C0058
:10146A000000000000000000000000000001000071
:10147A007E306D79335B5F707F7B00000000006B0C
:10148A0000771F4E3D4F475E37303C000E76257E73
:10149A006773055B0F3E0000003B00000000000878
:1014AA0053544943203234004A4555205155493254
:1014BA00004E4F4D425245200030002D0042553219
:1014CA003220004A55535445203F00434F5252455B
:1014DA00435400444F4D4D4147450065636F756C59
:0214EA0065009B
:00000001FF
