:020000040000FA
:100000000C9463000C948B000C948B000C948B006C
:100010000C948B000C948B000C948B000C94440774
:100020000C948B000C948B000C948B000C948B0024
:100030000C948B000C948B000C948B000C948B0014
:100040000C94FA060C948B000C948B000C948B008F
:100050000C948B000C948B000C948B000C948B00F4
:100060000C948B000C948B000200000000240027ED
:10007000002A0000000000250028002B00000000DE
:1000800000230026002900040404040404040402DC
:100090000202020202030303030303010204081025
:1000A00020408001020408102001020408102000F2
:1000B0000000080002010000030407000000000027
:1000C00000000000210F11241FBECFEFD8E0DEBFDB
:1000D000CDBF12E0A0E0B1E0EEE0F6E202C0059094
:1000E0000D92AC37B107D9F723E0ACE7B2E001C01D
:1000F0001D92A135B207E1F710E0C3E6D0E004C0DD
:100100002197FE010E941210C236D107C9F70E9442
:10011000C6070C9405130C940000833081F028F47A
:10012000813099F08230A9F008958730A9F08830A5
:10013000C9F08430B1F4809180008F7D03C080913C
:1001400080008F7780938000089584B58F7784BD79
:10015000089584B58F7DFBCF8091B0008F77809319
:10016000B00008958091B0008F7DF9CFCF93DF93D9
:10017000282F30E0F901E155FF4F8491F901E55650
:10018000FF4FD491F901E957FF4FC491CC23A1F05F
:1001900081110E948D00EC2FF0E0EE0FFF1FE3585D
:1001A000FF4FA591B491EC91ED2381E090E009F42B
:1001B00080E0DF91CF91089580E090E0FACF1F9327
:1001C000CF93DF93282F30E0F901E155FF4F849161
:1001D000F901E556FF4FD491F901E957FF4FC4915A
:1001E000CC23A9F0162F81110E948D00EC2FF0E096
:1001F000EE0FFF1FED58FF4FA591B4918FB7F89404
:10020000EC91111108C0D095DE23DC938FBFDF91F4
:10021000CF911F910895DE2BF8CFCF93DF9390E01D
:10022000FC01E556FF4F249189579F4FFC018491B3
:100230008823D1F090E0880F991FFC01E759FF4F08
:10024000A591B491FC01ED58FF4FC591D491623056
:1002500071F49FB7F8943C91822F809583238C93FF
:10026000E8812E2B28839FBFDF91CF9108958FB710
:10027000F894EC912E2B2C938FBFF6CF3FB7F894C8
:100280008091F5029091F602A091F702B091F802E8
:1002900026B5A89B05C02F3F19F00196A11DB11DE1
:1002A0003FBFBA2FA92F982F8827BC01CD01620F1D
:1002B000711D811D911D42E0660F771F881F991FD8
:1002C0004A95D1F708958F929F92AF92BF92CF92A5
:1002D000DF92EF92FF926B017C010E943E014B0185
:1002E0005C01C114D104E104F104B9F00E943E01A3
:1002F000681979098A099B09683E7340810591054F
:1003000080F321E0C21AD108E108F10888EE880ED6
:1003100083E0981EA11CB11CE4CFFF90EF90DF900A
:10032000CF90BF90AF909F908F9008952FB7F89483
:100330006091F1027091F2028091F3029091F402C7
:100340002FBF0895CF93DF9300D000D0CDB7DEB795
:1003500080910B0190910C01A0910D01B0910E01C3
:1003600089839A83AB83BC83DE011196E4EDF2E0CE
:10037000CE0105962D912083128211821482138260
:10038000168215823796A817B907A1F70F900F901C
:100390000F900F90DF91CF910895CF92DF92EF925F
:1003A000FF920F931F93CF93DF93EC010E94B6004F
:1003B0008E0102541D4FF801892B61F5808188233D
:1003C00011F080E01EC00E949601CC0FDD1FCC0F03
:1003D000DD1FCA57DD4FC880D980EA80FB806C19C9
:1003E0007D098E099F096D3371058105910548F3DB
:1003F0000E949601688379838A839B8381E0F80158
:100400008083DF91CF911F910F91FF90EF90DF904C
:10041000CF9008951082D5CF4F925F926F927F92C6
:10042000AF92BF92CF92DF92EF92FF920F931F9302
:10043000CF935C018B01809100018630C9F08F3F22
:1004400009F45AC0B801675E7F4F072E000C880B75
:10045000990BCF911F910F91FF90EF90DF90CF906C
:10046000BF90AF907F906F905F904F900C9463011E
:10047000E8E6F0E0C491C7FDE5CF61E086E00E94C8
:100480000D01C1114FC025010B2C000C6608770827
:1004900068E478EE81E090E0A30192010E94DD0F14
:1004A00069017A0181E0C81AD108E108F108CC237A
:1004B00009F4EBC0C23009F038C18FEFC816D1047F
:1004C000E104F10409F00CF438C164E274EF80E057
:1004D00090E0A30192010E94DD0F69017A0181E0A1
:1004E000C81AD108E108F10885E09091B100987F21
:1004F000892B8093B100E5C086E080930001E8E697
:10050000F0E0C491CF3F09F49DCFC13009F444C05D
:1005100050F1C23009F45EC0C7FD94CF61E086E0BF
:100520000E940D0195010B2C000C440B550BC230A1
:1005300009F072C029013A0160E970ED83E090E0B2
:100540000E94DD0F69017A0181E0C81AD108E10833
:10055000F1088FEFC816D104E104F10411F00CF09A
:1005600097CF83E0C2CF14BC15BC84B5826084BD34
:1005700085B5816085BDEDE8F0E0E491F0E0EE0F37
:10058000FF1FED58FF4F85919491E1EAF0E0E4916F
:10059000E0937D02C0E071CF109280001092810044
:1005A00080918100886080938100809181008160CA
:1005B00080938100EDE8F0E0E491F0E0EE0FFF1FA2
:1005C000ED58FF4F85919491E1EAF0E0E491E093DA
:1005D0007C0253CF1092B0001092B1008091B00015
:1005E00082608093B0008091B10081608093B100FF
:1005F000EDE8F0E0E491F0E0EE0FFF1FED58FF4F63
:10060000859194919093CD028093CC02E1EAF0E041
:10061000E491E093CE0231CF60E072E18AE790E0AE
:100620000E94DD0F69017A0181E0C81AD108E10852
:10063000F108C13009F045C080918100887F816058
:10064000809381003EC0D0928900C09288002093A0
:100650007E0230937F02409380025093810280910A
:100660006F00826080936F00EDCEC092B300209344
:10067000CF023093D0024093D1025093D2028091A6
:100680007000826080937000DDCE93E08FEFC8161B
:10069000D104E104F10489F084F062E17AE780E0BA
:1006A00090E0A30192010E94DD0F69017A0181E0CF
:1006B000C81AD108E108F10894E085B5887F892B34
:1006C00085BD9501220F331FD8010E940B1028EE23
:1006D00033E040E050E00E94BB0FC13009F4B3CFDB
:1006E000C23019F2C111AECEC7BC20938202309342
:1006F0008302409384025093850280916E00826051
:1007000080936E009FCE62E17AE780E090E0A301E3
:1007100092010E94DD0F69017A0181E0C81AD108B7
:10072000E108F108C1E086E0E0CE8FEFC816D10401
:10073000E104F10409F03CF7C1E084E0D6CE68ECB6
:1007400070E080E991E00E940C026EE571E08CE2BD
:1007500091E00C940C026EE670E080E793E00E945A
:100760000C026EEB70E08CE494E00C940C026CE3F1
:1007700070E08CEB92E00C940C02CF92DF92EF923F
:10078000FF920F931F93CF93DF9300D0CDB7DEB7C7
:1007900069834A83880F991F00914F03109150037A
:1007A000000F111FE9EFF2E09F01295F324020178F
:1007B000310714F41192F8CF2981FC01E750FD4F65
:1007C00021838A81808360E080914D030E94DF0055
:1007D0001016110604F501501109F801E750FD4FFC
:1007E000E080D0904B03C090490388E0F82E6E2D36
:1007F000661F6627661F8C2D0E94DF00EE0C61E0ED
:100800008D2D0E94DF0060E08D2D0E94DF00FA94A4
:10081000F110EDCFDDCF61E080914D030F900F908F
:10082000DF91CF911F910F91FF90EF90DF90CF90CC
:100830000C94DF00EF92FF920F931F93CF937C01F4
:100840008C0183E0000F111F8A95E1F7075F1C4FB1
:10085000C1E0F80111928F0140E06C2FC7010E94A6
:10086000BD03CF5FC930A9F7CF911F910F91FF90C2
:10087000EF90089580914F03909150031816190638
:1008800024F490E080E00C941A0408952F923F9293
:100890004F925F926F927F928F929F92AF92BF9290
:1008A000CF92DF92EF92FF920F931F93CF93DF933C
:1008B000582E462EEA010E9496014B015C018C0ED7
:1008C0009D1EA11CB11C24EF31E0429EC001439E3D
:1008D000900D11246FEF70E00E94930F7B018B014C
:1008E000000F111F000F111F055011093901661A61
:1008F000770A660C771C660C771C85E0681A71080D
:10090000C52DD0E024EB222E20E0322E3BECC32E6E
:1009100037E0D32E0E949601681979098A099B094C
:1009200097FF6EC061E085E00E940D01209791F471
:1009300060E085E00E94DF0060E0442021F0FFEFEE
:1009400061E04F124DC084E00E94DF00C6010197B4
:10095000F1F7E0CFCF3FD10511F461E0EACFF1012B
:100960008491833019F140F48130B1F08230C9F0C4
:10097000C038D10594F7DCCF873011F1883041F1D0
:100980008430B1F780918000806280938000D093A2
:100990008B00C0938A00D0CF84B5806884BD57BCDB
:1009A000CBCF84B5806284BD58BCC6CF8091800017
:1009B000806880938000D0938900C0938800BCCF6A
:1009C0008091B00080688093B0005092B300B4CFA3
:1009D0008091B00080628093B0005092B400ACCFA0
:1009E00084E00E94DF0082E0E816F10418F0C801FC
:1009F0000197F1F760E084E00E94DF00C301A7CF18
:100A000061E085E00E940D0160E085E00E94DF006A
:100A100060E084E0DF91CF911F910F91FF90EF9004
:100A2000DF90CF90BF90AF909F908F907F906F900E
:100A30005F904F903F902F900C94DF002F923F9249
:100A40004F925F926F927F928F929F92AF92BF92DE
:100A5000CF92DF92EF92FF920F931F93CF93DF938A
:100A600000D000D01F92CDB7DEB7C82ED62ECA0157
:100A700060E670E00E94930F8B0181E390E09A831F
:100A80008983F12CE12C8D2C912C90E3492E512C53
:100A9000612C712CAC2CB12C9401D7010E940B104D
:100AA000A30192010E94DD0F322E9501D7010E9411
:100AB0000B10A30192010E94DD0F822FA801632D6C
:100AC0000E9446049FEFE91AF90AA981BA81119799
:100AD000BA83A983AB2B01F79401A0E3B0E00E9495
:100AE000FC0F2B013C0195010E94FC0F4B015C01A6
:100AF00081E3282E312C8D2D90E0B0E0A0E0898399
:100B00009A83AB83BC83D12CF12CE12CC301B201BD
:100B100020E330E040E050E00E94DD0F2D83C5016E
:100B2000B40120E330E040E050E00E94DD0F822F6E
:100B3000A8016D810E94460491E0291A310889813B
:100B40009A81AB81BC81481A590A6A0A7B0A8C18BF
:100B50009D08AE08BF0821143104C1F60F900F9014
:100B60000F900F900F90DF91CF911F910F91FF90F9
:100B7000EF90DF90CF90BF90AF909F908F907F903D
:100B80006F905F904F903F902F900895CF93DF9399
:100B9000EC0144EF51E060E58FEF0E941E052197C4
:100BA00041F044EF51E060E58FEFDF91CF910C947D
:100BB0001E05DF91CF9108954CEB52E06FEF80E07E
:100BC0000C941E05EF92FF920F931F93CF93DF9328
:100BD00060E570E00E94930F8B01D0E0C0E098E2E6
:100BE000E92EF12CCE01B7010E94A70FA8018FEFCB
:100BF0000E944604C150DF4FC73D88E2D80791F7F5
:100C0000C8EDD7E288E2E82EF12CCE01B7010E94B0
:100C1000A70F862FA8016FEF0E944604CF5FD1096E
:100C2000C1308FEFD80789F7DF91CF911F910F91D6
:100C3000FF90EF90089561E085E00E940D0160E073
:100C400085E00E94DF0060E084E00C94DF009B01FF
:100C500077FF04C022273327261B370B283E43E0AB
:100C6000340714F027EE33E040E277FD4DE23F9386
:100C70002F931F924F9327E631E03F932F931F92BC
:100C800025E02F939F938F930E9420108DB79EB7DE
:100C90000A960FB6F8949EBF0FBE8DBF08950F93AE
:100CA0001F93CF93DF938C01C1E0D0E0F8018191D5
:100CB0008F01882331F1082E000C990B0E94181027
:100CC000809780349105E8F4815E9E4FFC0140815D
:100CD00080914F0390915003181619064CF4FE01B1
:100CE000E750FD4F47876C2F90E080E00E94BD03E6
:100CF0002196C930D105D1F6DF91CF911F910F9187
:100D0000089540E0E5CF7F928F929F92AF92BF927D
:100D1000CF92DF92EF92FF920F931F93CF93DF93C7
:100D2000CDB7DEB72E970FB6F894DEBF0FBECDBF9E
:100D30008EE691E00E944F066CEB72E080E090E05E
:100D40000E94630104ED12E0F12CE12C6E018AE0B7
:100D5000C80ED11C87E7882E81E0982E99E0792E65
:100D6000FE0131965F018091090190910A01E81618
:100D7000F90664F5F80161817281C6010E942706B7
:100D8000DF92CF92F8018081282F082E000C330BC0
:100D90003F938F939F928F921F927F92BF92AF92B9
:100DA0000E942010C5010E944F0668E775E080E0B0
:100DB00090E00E946301FFEFEF1AFF0A095F1F4FE7
:100DC0000FB6F894DEBF0FBECDBFCDCF2E960FB6B7
:100DD000F894DEBF0FBECDBFDF91CF911F910F9171
:100DE000FF90EF90DF90CF90BF90AF909F908F904B
:100DF0007F9008951F920F920FB60F9211242F9398
:100E00003F938F939F93AF93BF938091F102909103
:100E1000F202A091F302B091F4023091F00223E0CB
:100E2000230F2D3758F50196A11DB11D2093F00217
:100E30008093F1029093F202A093F302B093F40234
:100E40008091F5029091F602A091F702B091F8021C
:100E50000196A11DB11D8093F5029093F602A09317
:100E6000F702B093F802BF91AF919F918F913F919C
:100E70002F910F900FBE0F901F90189526E8230F0B
:100E80000296A11DB11DD2CF1F920F920FB60F92E5
:100E900011242F933F934F935F936F937F938F937F
:100EA0009F93AF93BF93EF93FF938091CF02909165
:100EB000D002A091D102B091D202892B8A2B8B2B28
:100EC000D1F19091CE02E091CC02F091CD028081DF
:100ED000892780838091CF029091D002A091D10286
:100EE000B091D202181619061A061B069CF48091BE
:100EF000CF029091D002A091D102B091D20201977D
:100F0000A109B1098093CF029093D002A093D1029E
:100F1000B093D202FF91EF91BF91AF919F918F91CA
:100F20007F916F915F914F913F912F910F900FBEE5
:100F30000F901F90189580910001E8E6F0E0E49191
:100F40009FEF90930001E13051F030F0E23069F012
:100F500060E00E94DF00DECF10926E00F9CF90912A
:100F60006F009D7F90936F00F3CF909170009D7FF5
:100F70009093700091E09093B0009091B100987FB1
:100F800094609093B1001092B300E2CFCF93DF93BF
:100F9000CDB7DEB7C354D1090FB6F894DEBF0FBE8C
:100FA000CDBF789484B5826084BD84B5816084BDF2
:100FB00085B5826085BD85B5816085BD80916E00F7
:100FC000816080936E001092810080918100826028
:100FD0008093810080918100816080938100809165
:100FE00080008160809380008091B1008460809354
:100FF000B1008091B00081608093B00080917A0050
:10100000846080937A0080917A00826080937A0075
:1010100080917A00816080937A0080917A00806864
:1010200080937A001092C10080E1EFE0F1E09E0130
:101030002F5F3F4F1901D90101900D928A95E1F779
:1010400089017E0131E1E30EF11CD8018C910E5F24
:101050001F4F62E00E940D010E151F05B1F761E000
:1010600086E00E940D0161E084E00E940D0161E0D4
:1010700085E00E940D010E941B0680914F03909114
:1010800050031816190634F441E06CE090E080E05B
:101090000E94BD0380914F039091500318161906CA
:1010A00034F44CE06AE090E080E00E94BD030E94CE
:1010B0003A040E94A20181EF91E00E944F0684E869
:1010C00093E00E94E20564E670E080E090E00E9418
:1010D00063018AEF91E00E944F0682E090E00E9457
:1010E000C60564E670E080E090E00E94630183E062
:1010F00092E00E944F0668E572E080E090E00E9476
:1011000063010E943A046CE271E080E090E00E948A
:10111000630198EE492E93E0592E612C712C0CE05E
:1011200012E0B9E0DB2E84E0E82EF12C80910A0178
:101130008F93809109018F931F930F931F92DF92DA
:101140003F922F920E942010C1010E944F0690E012
:1011500080E00E94CD010FB6F894DEBF0FBECDBF78
:10116000882379F08091090190910A0101968530D8
:1011700091050CF0AFC190930A01809309010E9480
:10118000B70381E090E00E94CD01882379F080913F
:10119000090190910A010197823091050CF4A1C1D7
:1011A00090930A01809309010E94B70382E090E0C6
:1011B0000E94CD01882309F499C10E94B70301E080
:1011C0001091D3028FE791E0111102C088E891E0FD
:1011D0000E944F0690E080E00E94CD01882309F430
:1011E0008CC110271093D3020E94B70382E090E0D5
:1011F0000E94CD01882309F487C10E94B703809122
:10120000D302882309F487C182E991E00E944F0646
:1012100064E873E080E090E00E9463010E94A20114
:1012200010E08DEA91E001E00E944F0690E080E03E
:101230000E94CD01882309F471C110270E94B703D1
:1012400082E090E00E94CD01882309F412C20E943E
:10125000B70311116AC10FE112E079E0B72EE5E0A2
:10126000EE2EF12CFCE3CF2ED12C809102018F9336
:10127000809101018F931F930F931F92BF923F9212
:101280002F920E942010C1010E944F0690E080E042
:101290000E94CD010FB6F894DEBF0FBECDBF8823EC
:1012A00079F0809101019091020105968D339105AD
:1012B0000CF0EDC190930201809301010E94B703ED
:1012C00081E090E00E94CD01882379F080910101B6
:1012D000909102010597853091050CF4DDC1909342
:1012E0000201809301010E94B70382E090E00E9416
:1012F000CD01882309F4D5C10E94B70309E212E0A9
:1013000049E0B42EEE24E394F12C64E1C62ED12CF6
:10131000809106018F93809105018F931F930F9306
:101320001F92BF923F922F920E942010C1010E94F3
:101330004F0690E080E00E94CD010FB6F894DEBF2A
:101340000FBECDBF882379F08091050190910601F1
:101350000196853191050CF0ABC190930601809305
:1013600005010E94B70381E090E00E94CD0188232F
:1013700079F08091050190910601019718161906E0
:101380000CF09BC190930601809305010E94B70366
:1013900082E090E00E94CD01882309F493C10E946D
:1013A000B70307EE11E029E0D22E3AE0E32EF12C4C
:1013B000809104018F93809103018F931F930F936A
:1013C0001F92DF923F922F920E942010C1010E9433
:1013D0004F0690E080E00E94CD010FB6F894DEBF8A
:1013E0000FBECDBF882379F0809103019091040155
:1013F00001968B3091050CF06CC1909304018093A1
:1014000003010E94B70381E090E00E94CD01882390
:1014100069F08091030190910401019797FD5EC1ED
:1014200090930401809303010E94B70382E090E04F
:101430000E94CD01882309F456C10E94B70383E3BB
:1014400092E00E944F0660E570E088EB91E00E9418
:101450000C0260E570E084E992E00E940C0260EA10
:1014600070E080E793E00E940C026CEB72E080E099
:1014700090E00E9463011CAA1DAA1EAA1FAA0E9436
:10148000960124966CAF7DAF8EAF9FAF2497C12C91
:10149000D12C7601AE014C5C5F4F59AF48AFCE0105
:1014A00086969BAF8AAF8091090190910A01FE0157
:1014B000F49610E000E09F01A8ADB9AD2A1B3B0BEC
:1014C000281739070CF016C121912111F4CF0F5FB5
:1014D0001F4FF1CF22E030E030930A012093090141
:1014E0004ECEF0920A01E09209015ECE64E170E016
:1014F00080E090E00E94630119CE81E090E00E94BC
:10150000CD0181116ECE72CE64E170E080E090E09A
:101510000E94630155CE8BE991E078CE81E090E0A6
:101520000E94CD01811189CE8BCEF12C82EB91E00E
:1015300007E112E0A9E0EA2EDD24D39413C081E094
:1015400090E00E94CD01811125C027C064E170E0C8
:1015500080E090E00E94630182EB91E0FF2011F0B7
:1015600089EA91E09F938F931F930F931F92EF92BD
:101570003F922F920E942010C1010E944F0690E0DE
:1015800080E00E94CD010FB6F894DEBF0FBECDBF44
:101590008823A9F2FD240E94B70382E090E00E9414
:1015A000CD01882399F20E94B703FF2009F453CE9E
:1015B00064E670E088EE93E00E940C0264E670E05E
:1015C00080EB94E00E940C026AEF70E08CED95E0F5
:1015D0000E940C028EE492E00E944F066CED75E0D2
:1015E00080E090E00E94630144ED52E06101C1019E
:1015F00070E060E02091090130910A0162177307E1
:101600000CF42BC321503109A90170E060E062178E
:1016100073070CF034C3C10110E000E00417150794
:101620000CF028C30F5F1F4FFC01A181B281E08441
:10163000F184AE15BF05DCF4A7E0FA2EDE015D965D
:1016400001900D92FA94E1F7B7E0FB2EFC0137967A
:10165000DC0101900D92FA94E1F7E7E0FE2EFE0125
:101660007D96DC01179601900D92FA94E1F70796AA
:10167000D5CF64E170E080E090E00E9463018DEAE4
:1016800091E0112309F4D0CD84EA91E0CDCDF09220
:101690000201E092010112CED0920201C09201013A
:1016A00022CE64E170E080E090E00E946301DDCD35
:1016B000F0920601E092050154CED0920601C0924C
:1016C000050164CE64E170E080E090E00E94630177
:1016D0001FCE109204011092030193CEF0920401E8
:1016E000E0920301A1CE64E170E080E090E00E940E
:1016F00063015ECE0E94960124962CAD3DAD4EADA9
:101700005FAD2497621B730B840B950B6C197D09DD
:101710008E099F09A30192010E94BB0F80910101D4
:1017200090910201821B930B181619065CF08CE352
:1017300092E00E944F060E949F0364E175E080E002
:1017400090E00CC0012B79F485E492E00E944F06F2
:101750000E949F0360EB74E080E090E00E946301D0
:101760000E9483065DCD8FEF9FEF909308018093D9
:1017700007010091010110910201809107019091F0
:10178000080197FF74C00E94960124962CAD3DADD0
:101790004EAD5FAD2497621B730B840B950B6C19D8
:1017A0007D098E099F09A30192010E94BB0FC80108
:1017B000821B930B182FB92E97FF02C010E0B12C9B
:1017C000181619060CF0B3CF06979CF186EB91E042
:1017D000BF921F939F938F931F9239E03F9341E0F5
:1017E00050E04C0F5D1F5F934F930E942010CE017D
:1017F00001960E944F060FE511E00FB6F894DEBF88
:101800000FBECDBFDE01D4965D014501E8ADF9AD57
:101810008E1A9F0A8091090190910A0188169906F3
:10182000FCF4D5018D915D01882381F00E5F1F4F7F
:10183000ECCF0E94960120E931E040E050E00E94A8
:10184000BB0F20FDC3CF80EC91E0C2CFF8018081B7
:101850000E94B600892B51F79092080180920701EF
:1018600068E270E080E090E00E94630182CF0E9415
:1018700096014B015C0166E470E088E795E00E9408
:101880000C0268E270E080E090E00E94630166E490
:1018900070E088E795E00E940C0281E090E00E94F1
:1018A000C6050E949601C60ED71EE81EF91EA701A6
:1018B0009601281939094A095B092CAF3DAF4EAF93
:1018C0005FAF0E94960124962CAD3DAD4EAD5FAD4D
:1018D0002497621B730B840B950B2CAD3DAD4EAD65
:1018E0005FAD621B730B840B950BA30192010E94E9
:1018F000BB0F021B130B17FF02C010E000E00E9499
:1019000096014B015C0187E0C82E99E0D92E0E9418
:101910009601681979098A099B09A30192010E941D
:10192000BB0F7801E21AF30AF7FCBFC020E036E0F3
:10193000E316F1046CF40E9496012CE231E040E0E1
:1019400050E00E94BB0F2095309540955095217036
:101950008091070190910801C89EF001C99EF00D89
:101960001124EC52FD4F3081432F032E000C550BF8
:1019700089EC91E0211102C083ED91E0FF92EF929A
:101980005F933F939F938F931F92DF924BAD4F9343
:101990005AAD5F930E942010CE0186960E944F069A
:1019A00082E090E00E94CD010FB6F894DEBF0FBE3A
:1019B000CDBF882309F47CC0809107019091080174
:1019C000B7E0FB2EF89EF001F99EF00D1124EC52C9
:1019D000FD4F838194810196948383830091050157
:1019E0001091060181819281800F911F92838183E2
:1019F0000E9496011F930F9389E292E09F938F9329
:101A00001F92DF928E01035E1F4F1F930F930E9460
:101A10002010C8010E944F060E94AB030E94DC0503
:101A20000E9496018091070190910801F89EF001B3
:101A3000F99EF00D1124EC52FD4F618172810E5E12
:101A40001F4FC8010E9427061F930F938091070123
:101A500090910801F89EF001F99EF00D1124EC52CE
:101A6000FD4F8081282F082E000C330B3F938F935E
:101A700087E791E09F938F931F92DF920E52110997
:101A80001F930F930E942010C8010E944F0668E721
:101A900075E080E090E00E9463010E9483060FB62B
:101AA000F894DEBF0FBECDBFBBCBF12CE12C43CFF2
:101AB00083E090E00E94CD01811104C0E114F104A3
:101AC00009F0C4C0809107019091080127E0289F88
:101AD000F001299FF00D1124EC52FD4F2581368134
:101AE0002F5F3F4F3683258300910301109104013E
:101AF00021813281201B310B3283218324E330E0AA
:101B00002C0F3D1F820F931F21E0DC012C930E94BC
:101B100096014B015C018EED91E0EF2811F087EE0C
:101B200091E01F930F939F938F931F92F9E0FF2EE5
:101B3000FF928E01035E1F4F1F930F930E94201090
:101B4000C8010E944F066CE771E08EE591E00E94AB
:101B50000C024CEB52E060E08FEF0E941E050E94E9
:101B600096012CAD3DAD4EAD5FAD281939094A093E
:101B70005B0949015A01860E971EA81EB91E809165
:101B8000070190910801A7E0EA2EE89EF001E99E86
:101B9000F00D1124EC52FD4F618172810E5E1F4FDA
:101BA000C8010E9427061F930F938091070190910F
:101BB0000801E89EF001E99EF00D1124EC52FD4F62
:101BC0008081282F082E000C330B3F938F9387E7DB
:101BD00091E09F938F931F92FF9241E050E04C0F52
:101BE0005D1F5F934F930E9420100E9496016CAF7F
:101BF0007DAF8EAF9FAFCE0101960E944F0664E885
:101C000073E080E090E00E9463010E9496016B0106
:101C10007C01C80CD91CEA1CFB1C8CAD9DADAEAD83
:101C2000BFADC81AD90AEA0AFB0A8FEF9FEF90935B
:101C30000801809307010FB6F894DEBF0FBECDBF39
:101C40008091D302882309F42ECC8ACD68E270E01B
:101C500080E090E00E9463015ACE27E0FA01DC01A7
:101C600001900D922A95E1F76F5F7F4F495F5F4FBB
:101C70000796C0CC6F5F7F4F41505109C8CC87E5B4
:101C800092E00E944F0668EE73E080E090E00E94D0
:101C90006301F12CE12C8E01035E1F4F5E01F6E221
:101CA000AF0EB11C90E6892E92E0992E8091090129
:101CB00090910A01E816F9068CF5D60111966D91FE
:101CC0007C91C5010E942706BFEFEB1AFB0ABF9269
:101CD000AF92F6018081282F082E000C330B3F9322
:101CE0008F93FF92EF929F928F921F92F9E0FF9352
:101CF0001F930F930E942010C8010E944F0664ECAE
:101D000079E080E090E00E94630127E0C20ED11CE0
:101D10000FB6F894DEBF0FBECDBFC8CF8981282F84
:101D2000082E000C330B3F938F9389E692E09F932C
:101D30008F931F9289E08F931F930F930E9420101F
:101D40000FB6F894DEBF0FBECDBF83E0E82EF12CB6
:101D50004EE650E060E08FEF0E9446040E941B06B2
:101D600064E170E080E090E00E9463014EE650E0A4
:101D70006FEF80E00E9446040E941B0664E170E061
:101D800080E090E00E94630191E0E91AF10801F718
:101D9000F12CE12CE0FC42C0C8010E944F060E94D9
:101DA000AB036CE771E080E090E00E946301AFEF6D
:101DB000EA1AFA0AB7E0EB16F10461F7C8010E94CB
:101DC0004F0680E991E00E94E20580E991E00E94DF
:101DD000E20580E991E00E94E2050E94DC050E9494
:101DE000DC050E941B0664EF71E080E090E00E9439
:101DF000630183E792E00E944F066CED75E080E09E
:101E000090E00E94630182E090E00E94CD01811188
:101E100008C062E370E080E090E0F3CF0E943A04F3
:101E2000C0CF0E943A046CE271E080E090E00E9432
:101E3000630180E090E0892B09F471C90E940000E1
:101E40006EC9CF93DF93CBE0D0E0D0934A03C09329
:101E500049038DE090E090934C0380934B038AE01C
:101E600090E090934E0380934D0381E090E0909337
:101E7000500380934F0361E08BE00E940D0161E00D
:101E800080914B030E940D0161E080914D030E94FF
:101E90000D0161E080914D030E94DF00D0934A0361
:101EA000C0934903E9E0F3E0119283E0E934F807D5
:101EB000D9F7D0E0C0E080914F0390915003C8174C
:101EC000D90774F540E06FE0CE010E94BD03809118
:101ED0004F0390915003C817D9072CF447E06BE0EB
:101EE000CE010E94BD0340E069E0CE010E94BD0327
:101EF00080914F0390915003C817D9071CF4CE016D
:101F00000E941A0480914F0390915003C817D9077B
:101F10002CF440E06CE0CE010E94BD032196CBCFB3
:101F2000DF91CF910895AA1BBB1B51E107C0AA1FE7
:101F3000BB1FA617B70710F0A61BB70B881F991F6A
:101F40005A95A9F780959095BC01CD01089597FB0E
:101F5000072E16F4009407D077FD09D00E94930F46
:101F600007FC05D03EF4909581959F4F089570959C
:101F700061957F4F0895A1E21A2EAA1BBB1BFD019C
:101F80000DC0AA1FBB1FEE1FFF1FA217B307E40758
:101F9000F50720F0A21BB30BE40BF50B661F771FB0
:101FA000881F991F1A9469F7609570958095909590
:101FB0009B01AC01BD01CF010895052E97FB1EF4D6
:101FC00000940E94F40F57FD07D00E94BB0F07FC3E
:101FD00003D04EF40C94F40F509540953095219514
:101FE0003F4F4F4F5F4F0895909580957095619545
:101FF0007F4F8F4F9F4F0895A29FB001B39FC001A5
:10200000A39F700D811D1124911DB29F700D811D24
:102010001124911D08950E94FC0FB7FF0895821BA3
:10202000930B0895EE0FFF1F0590F491E02D099496
:102030009111089581568A5108F480528558089567
:10204000AEE0B0E0E6E2F0E10C94DC120D891E890E
:102050008F89988D26E02C831A83098397FF02C00D
:1020600080E090E801979E838D83AE01455E5F4FCF
:10207000698D7A8DCE0101960E9450104D815E814E
:1020800057FD0AC02F813885421753070CF49A0177
:10209000020F131FF80110822E96E4E00C94F81240
:1020A000ABE0B0E0E6E5F0E10C94CE127C013B0140
:1020B0008A01FC0117821682838181FFC8C1CE018B
:1020C00001965C01F7019381F30193FD859193FFE4
:1020D00081913F01882309F453C1853239F493FD7E
:1020E000859193FF81913F01853229F4B70190E0FA
:1020F0000E944012E7CF912C212C312CFFE1F315E7
:1021000038F08B3211F190F4803209F1833229F1E9
:1021100037FC3CC020ED280F2A3050F536FE20C099
:102120008AE0989E200D1124922E06C08D3291F0E7
:10213000803371F7689430F8F30193FD859193FF34
:1021400081913F018111DACF21C0689431F8689400
:1021500032F8F2CF689433F8EFCF689434F8ECCFCC
:10216000EAE02E9E200D1124222E689435F8E4CF4B
:102170008E3229F436FC04C1689436F8DDCF8C36F3
:1021800019F4689437F8D8CF8836B1F2982F9F7D2C
:1021900095549330E0F08336A1F18337C1F1833554
:1021A00009F063C02801F2E04F0E511CF801C08015
:1021B000D180692D70E036FC02C06FEF7FEFC60161
:1021C0000E942A124C01689437F882010AC00C5F01
:1021D0001F4FFFE3F98388248394912C6501E894D1
:1021E00037F833FE2DC0522C8114910471F555201F
:1021F00009F468CFB70180E290E00E9440125A943F
:10220000F6CFF801808189830E5F1F4FE4CF28014C
:10221000F2E04F0E511CF801C080D180692D70E0B2
:1022200036FC02C06FEF7FEFC6010E9435124C01F1
:102230008201D5CFB70180E290E00E9440122A943B
:102240002814190409F0B0F7CECFF60137FC8591B8
:1022500037FE81916F01B70190E00E94401251104A
:102260005A94F1E08F1A9108BFCF843619F089365D
:1022700009F077C0F80137FE6BC0608171818281FF
:1022800093810C5F1F4FF32DFF763F2E97FF09C000
:1022900090958095709561957F4F8F4F9F4F689473
:1022A00037F82AE030E0A5010E947012C82ECA1843
:1022B0008C2C432C36FE0CC0E89440F8C91440F432
:1022C00034FE05C032FC03C0F32DFE7E4F2E892C58
:1022D00044FE95C0FE01EC0DF11D8081803309F0B4
:1022E00087C0242D297E422E842D8870582E43FCD1
:1022F00095C040FE8FC09C2C821418F42C0C922C9C
:10230000981844FE91C0B70180E390E00E9440120B
:1023100042FE09C088E790E041FE02C088E590E0F7
:10232000B7010E944012C91408F48AC0CA94D12C83
:102330009FEFC91AD90ACA0CDB1CF60182916F0102
:10234000B70190E00E944012AC14BD04B1F74FCF2A
:1023500060817181072E000C880B990B0E5F1F4F57
:1023600092CFD32CE894D4F82AE030E0853739F1C5
:10237000232D297FD22E8F3601F148F48835A9F01C
:10238000F701868197812B96E2E10C94EA1280375F
:1023900049F08837A9F7D4FE02C06894D2F820E14A
:1023A00030E00DC06894D4F8F6CF34FE03C0822F1D
:1023B0008660D82E20E132E002C028E030E0F8014B
:1023C000D7FE0FC060817181828193810C5F1F4FA6
:1023D000A5010E947012C82ECA183D2CE89437F847
:1023E00067CF6081718190E080E00E5F1F4FF0CF7A
:1023F00042FC02C0839478CF8394839475CF842D5C
:10240000867809F471CFF6CFB70180E290E00E94A0
:10241000401283948214C0F3512C73CF522C58185D
:10242000821408F46ECFF8CF842D867809F47BCF20
:102430008BE241FE80E247FC8DE2B70190E071CF74
:10244000B70180E390E00E9440129A946CCF8FEF26
:102450009FEF99CFFC010590615070400110D8F7B3
:10246000809590958E0F9F1F0895FC0161507040DC
:1024700001900110D8F7809590958E0F9F1F0895B9
:102480000F931F93CF93DF93182F092FEB018B81AD
:1024900081FD09C01FEF0FEF812F902FDF91CF91AA
:1024A0001F910F91089582FF14C02E813F818C816E
:1024B0009D81281739073CF4E881F981CF01019605
:1024C0009983888310838E819F8101969F838E8359
:1024D000E3CFE885F985812F0995892BA1F3DACF20
:1024E000FA01AA27283051F1203181F1E8946F9345
:1024F0006E7F6E5F7F4F8F4F9F4FAF4FB1E03ED0EB
:10250000B4E03CD0670F781F891F9A1FA11D680F88
:10251000791F8A1F911DA11D6A0F711D811D911DBB
:10252000A11D20D009F468943F912AE0269F112430
:102530003019305D3193DEF6CF010895462F477094
:10254000405D4193B3E00FD0C9F7F6CF462F4F70EF
:10255000405D4A3318F0495D31FD4052419302D04D
:10256000A9F7EACFB4E0A6959795879577956795F3
:10257000BA95C9F700976105710508959B01AC01F3
:102580000A2E06945795479537952795BA95C9F71A
:10259000620F731F841F951FA01D08952F923F92F5
:1025A0004F925F926F927F928F929F92AF92BF9263
:1025B000CF92DF92EF92FF920F931F93CF93DF930F
:1025C000CDB7DEB7CA1BDB0B0FB6F894DEBF0FBE6C
:1025D000CDBF09942A88398848885F846E847D84B9
:1025E0008C849B84AA84B984C884DF80EE80FD80BB
:1025F0000C811B81AA81B981CE0FD11D0FB6F89431
:10260000DEBF0FBECDBFED010895F894FFCFFF0FE1
:102610000005000A00FFFF0400414243440200039A
:1026200000000001000700080009000C0000000085
:10263000000000000000000000000100007E306D7E
:1026400079335B5F707F7B00000000006500771FBF
:102650004E3D4F475E37303C370E76177E67730529
:102660005B0F3E0000003B6D000000000807000803
:102670000009000C002563253033640053434F529A
:10268000455320200025632020202573004D442041
:10269000464C415348004D44204E4F524D4120007E
:1026A000464C415348204F4E004E4F524D41204F13
:1026B0004E0046494E3F204F55490046494E3F2067
:1026C0004E4F4E002D2D2D2D2020253264002D2D16
:1026D0002D2D2020202000256320202020202020B8
:1026E00000256320202020202532640054524F50C2
:1026F00020544152004E4F4B2020202532640020B0
:10270000535449433234200020205155495A202047
:102710000020434F4E46494720004A4F55455552E9
:1027200020253164005355523F2025730054454DF8
:10273000505320253264004F4B2020202025326446
:10274000002020474F202020200045434F554C4576
:10275000202000504C5553204E4F4B0046494E20F0
:102760004A45552000434C4153534D5420002564A5
:102770002563202025730057494E20202025632003
:0A278000005245535441525420000A
:107E0000112484B714BE81FFF0D085E080938100F7
:107E100082E08093C00088E18093C10086E0809377
:107E2000C20080E18093C4008EE0C9D0259A86E02C
:107E300020E33CEF91E0309385002093840096BBD3
:107E4000B09BFECF1D9AA8958150A9F7CC24DD24C4
:107E500088248394B5E0AB2EA1E19A2EF3E0BF2EE7
:107E6000A2D0813461F49FD0082FAFD0023811F036
:107E7000013811F484E001C083E08DD089C08234E0
:107E800011F484E103C0853419F485E0A6D080C0E4
:107E9000853579F488D0E82EFF2485D0082F10E0AE
:107EA000102F00270E291F29000F111F8ED06801E7
:107EB0006FC0863521F484E090D080E0DECF843638
:107EC00009F040C070D06FD0082F6DD080E0C81688
:107ED00080E7D80618F4F601B7BEE895C0E0D1E017
:107EE00062D089930C17E1F7F0E0CF16F0E7DF06D8
:107EF00018F0F601B7BEE89568D007B600FCFDCFD4
:107F0000A601A0E0B1E02C9130E011968C91119780
:107F100090E0982F8827822B932B1296FA010C0160
:107F200087BEE89511244E5F5F4FF1E0A038BF0790
:107F300051F7F601A7BEE89507B600FCFDCF97BE46
:107F4000E89526C08437B1F42ED02DD0F82E2BD052
:107F50003CD0F601EF2C8F010F5F1F4F84911BD097
:107F6000EA94F801C1F70894C11CD11CFA94CF0C13
:107F7000D11C0EC0853739F428D08EE10CD085E9AC
:107F80000AD08FE07ACF813511F488E018D01DD067
:107F900080E101D065CF982F8091C00085FFFCCF94
:107FA0009093C60008958091C00087FFFCCF809118
:107FB000C00084FD01C0A8958091C6000895E0E648
:107FC000F0E098E1908380830895EDDF803219F02E
:107FD00088E0F5DFFFCF84E1DECF1F93182FE3DFCA
:107FE0001150E9F7F2DF1F91089580E0E8DFEE27F6
:047FF000FF270994CA
:027FFE00040479
:00000001FF
