:100000000C9463000C948B000C948B000C948B006C
:100010000C948B000C948B000C948B000C94F004CB
:100020000C948B000C948B000C948B000C948B0024
:100030000C948B000C948B000C948B000C948B0014
:100040000C94A6040C948B000C948B000C948B00E5
:100050000C948B000C948B000C948B000C948B00F4
:100060000C948B000C948B000200000000240027ED
:10007000002A0000000000250028002B00000000DE
:1000800000230026002900040404040404040402DC
:100090000202020202030303030303010204081025
:1000A00020408001020408102001020408102000F2
:1000B0000000080002010000030407000000000027
:1000C00000000000810B11241FBECFEFD8E0DEBF7F
:1000D000CDBF12E0A0E0B1E0ECE8FEE102C0059087
:1000E0000D92AE32B107D9F723E0AEE2B2E001C023
:1000F0001D92A834B207E1F710E0C3E6D0E004C0D7
:100100002197FE010E943B0CC236D107C9F70E941D
:1001100072050C94440F0C940000833081F028F495
:10012000813099F08230A9F008958730A9F08830A5
:10013000C9F08430B1F4809180008F7D03C080913C
:1001400080008F7780938000089584B58F7784BD79
:10015000089584B58F7DFBCF8091B0008F77809319
:10016000B00008958091B0008F7DF9CFCF93DF93D9
:10017000282F30E0F901E155FF4F8491F901E55650
:10018000FF4FD491F901E957FF4FC491CC23A1F05F
:1001900081110E948D00EC2FF0E0EE0FFF1FE3585D
:1001A000FF4FA591B491EC91ED2381E090E009F42B
:1001B00080E0DF91CF91089580E090E0FACF1F9327
:1001C000CF93DF93282F30E0F901E155FF4F849161
:1001D000F901E556FF4FD491F901E957FF4FC4915A
:1001E000CC23A9F0162F81110E948D00EC2FF0E096
:1001F000EE0FFF1FED58FF4FA591B4918FB7F89404
:10020000EC91111108C0D095DE23DC938FBFDF91F4
:10021000CF911F910895DE2BF8CFCF93DF9390E01D
:10022000FC01E556FF4F249189579F4FFC018491B3
:100230008823D1F090E0880F991FFC01E759FF4F08
:10024000A591B491FC01ED58FF4FC591D491623056
:1002500071F49FB7F8943C91822F809583238C93FF
:10026000E8812E2B28839FBFDF91CF9108958FB710
:10027000F894EC912E2B2C938FBFF6CF3FB7F894C8
:100280008091EC029091ED02A091EE02B091EF020C
:1002900026B5A89B05C02F3F19F00196A11DB11DE1
:1002A0003FBFBA2FA92F982F8827BC01CD01620F1D
:1002B000711D811D911D42E0660F771F881F991FD8
:1002C0004A95D1F708958F929F92AF92BF92CF92A5
:1002D000DF92EF92FF926B017C010E943E014B0185
:1002E0005C01C114D104E104F104B9F00E943E01A3
:1002F000681979098A099B09683E7340810591054F
:1003000080F321E0C21AD108E108F10888EE880ED6
:1003100083E0981EA11CB11CE4CFFF90EF90DF900A
:10032000CF90BF90AF909F908F9008952FB7F89483
:100330006091E8027091E9028091EA029091EB02EB
:100340002FBF0895CF93DF9300D000D0CDB7DEB795
:1003500080910B0190910C01A0910D01B0910E01C3
:1003600089839A83AB83BC83DE011196EBECF2E0C8
:10037000CE0105962D912083128211821482138260
:10038000168215823796A817B907A1F70F900F901C
:100390000F900F90DF91CF910895CF92DF92EF925F
:1003A000FF920F931F93CF93DF93EC010E94B6004F
:1003B0008E0100591D4FF801892B61F5808188233A
:1003C00011F080E01EC00E949601CC0FDD1FCC0F03
:1003D000DD1FC85CDD4FC880D980EA80FB806C19C6
:1003E0007D098E099F096D3371058105910548F3DB
:1003F0000E949601688379838A839B8381E0F80158
:100400008083DF91CF911F910F91FF90EF90DF904C
:10041000CF9008951082D5CF60E084E00E94DF0085
:1004200060E085E00C94DF0060E084E00E94DF0083
:1004300061E085E00C94DF004F925F926F927F92B3
:10044000AF92BF92CF92DF92EF92FF920F931F93E2
:10045000CF935C018B01809100018630C9F08F3F02
:1004600009F45AC0B801675E7F4F072E000C880B55
:10047000990BCF911F910F91FF90EF90DF90CF904C
:10048000BF90AF907F906F905F904F900C946301FE
:10049000E8E6F0E0C491C7FDE5CF61E086E00E94A8
:1004A0000D01C1114FC025010B2C000C6608770807
:1004B00068E478EE81E090E0A30192010E94150CBF
:1004C00069017A0181E0C81AD108E108F108CC235A
:1004D00009F4EBC0C23009F038C18FEFC816D1045F
:1004E000E104F10409F00CF438C164E274EF80E037
:1004F00090E0A30192010E94150C69017A0181E04C
:10050000C81AD108E108F10885E09091B100987F00
:10051000892B8093B100E5C086E080930001E8E676
:10052000F0E0C491CF3F09F49DCFC13009F444C03D
:1005300050F1C23009F45EC0C7FD94CF61E086E09F
:100540000E940D0195010B2C000C440B550BC23081
:1005500009F072C029013A0160E970ED83E090E092
:100560000E94150C69017A0181E0C81AD108E108DE
:10057000F1088FEFC816D104E104F10411F00CF07A
:1005800097CF83E0C2CF14BC15BC84B5826084BD14
:1005900085B5816085BDEDE8F0E0E491F0E0EE0F17
:1005A000FF1FED58FF4F85919491E1EAF0E0E4914F
:1005B000E0932F02C0E071CF109280001092810072
:1005C00080918100886080938100809181008160AA
:1005D00080938100EDE8F0E0E491F0E0EE0FFF1F82
:1005E000ED58FF4F85919491E1EAF0E0E491E093BA
:1005F0002E0253CF1092B0001092B1008091B00043
:1006000082608093B0008091B10081608093B100DE
:10061000EDE8F0E0E491F0E0EE0FFF1FED58FF4F42
:100620008591949190937F0280937E02E1EAF0E0BD
:10063000E491E093800231CF60E072E18AE790E0DC
:100640000E94150C69017A0181E0C81AD108E108FD
:10065000F108C13009F045C080918100887F816038
:10066000809381003EC0D0928900C0928800209380
:100670003002309331024093320250933302809122
:100680006F00826080936F00EDCEC092B300209324
:1006900081023093820240938302509384028091BE
:1006A0007000826080937000DDCE93E08FEFC816FB
:1006B000D104E104F10489F084F062E17AE780E09A
:1006C00090E0A30192010E94150C69017A0181E07A
:1006D000C81AD108E108F10894E085B5887F892B14
:1006E00085BD9501220F331FD8010E94340C28EEDE
:1006F00033E040E050E00E94F30BC13009F4B3CF87
:10070000C23019F2C111AECEC7BC2093340230936F
:100710003502409336025093370280916E0082601A
:1007200080936E009FCE62E17AE780E090E0A301C3
:1007300092010E94150C69017A0181E0C81AD10862
:10074000E108F108C1E086E0E0CE8FEFC816D104E1
:10075000E104F10409F03CF7C1E084E0D6CE6EE696
:1007600070E080E793E00E941C026EEB70E08CE486
:1007700094E00C941C026CE370E08CEB92E00C941F
:100780001C02CF92DF92EF92FF920F931F93CF93B1
:10079000DF9300D0CDB7DEB769834A83880F991FF6
:1007A0000091460310914703000F111FE0EFF2E0A4
:1007B0009F01205F32402017310714F41192F8CFC7
:1007C0002981FC01E051FD4F21838A81808360E013
:1007D000809144030E94DF001016110604F50150B9
:1007E0001109F801E051FD4FE080D0904203C09024
:1007F000400388E0F82E6E2D661F6627661F8C2D3D
:100800000E94DF00EE0C61E08D2D0E94DF0060E0B1
:100810008D2D0E94DF00FA94F110EDCFDDCF61E065
:10082000809144030F900F90DF91CF911F910F9112
:10083000FF90EF90DF90CF900C94DF00EF92FF924B
:100840000F931F93CF937C018C0183E0000F111F46
:100850008A95E1F700501D4FC1E0F80111928F0118
:1008600040E06C2FC7010E94C103CF5FC930A9F7D8
:10087000CF911F910F91FF90EF90089580914603C3
:10088000909147031816190624F490E080E00C9428
:100890001E0408959B0177FF04C022273327261BDF
:1008A000370B283E43E0340714F027EE33E040E2F4
:1008B00077FD4DE23F932F931F924F9327E631E050
:1008C0003F932F931F9225E02F939F938F930E9426
:1008D0005F0C8DB79EB70A960FB6F8949EBF0FBEF9
:1008E0008DBF08950F931F93CF93DF938C01C1E0C9
:1008F000D0E0F80181918F01882331F1082E000C9E
:10090000990B0E94500C809780349105E8F4815E29
:100910009E4FFC0140818091460390914703181639
:1009200019064CF4FE01E051FD4F47876C2F90E013
:1009300080E00E94C1032196C930D105D1F6DF9134
:10094000CF911F910F91089540E0E5CF1F920F9234
:100950000FB60F9211242F933F938F939F93AF93D2
:10096000BF938091E8029091E902A091EA02B091D0
:10097000EB023091E70223E0230F2D3758F5019663
:10098000A11DB11D2093E7028093E8029093E90234
:10099000A093EA02B093EB028091EC029091ED02F9
:1009A000A091EE02B091EF020196A11DB11D8093BE
:1009B000EC029093ED02A093EE02B093EF02BF9190
:1009C000AF919F918F913F912F910F900FBE0F90FC
:1009D0001F90189526E8230F0296A11DB11DD2CFB6
:1009E0001F920F920FB60F9211242F933F934F93A4
:1009F0005F936F937F938F939F93AF93BF93EF9387
:100A0000FF938091810290918202A0918302B09124
:100A10008402892B8A2B8B2BD1F190918002E0915B
:100A20007E02F0917F0280818927808380918102FC
:100A300090918202A0918302B09184021816190647
:100A40001A061B069CF48091810290918202A0916B
:100A50008302B09184020197A109B10980938102B8
:100A600090938202A0938302B0938402FF91EF914E
:100A7000BF91AF919F918F917F916F915F914F91B6
:100A80003F912F910F900FBE0F901F90189580915E
:100A90000001E8E6F0E0E4919FEF90930001E1307F
:100AA00051F030F0E23069F060E00E94DF00DECF0C
:100AB00010926E00F9CF90916F009D7F90936F0020
:100AC000F3CF909170009D7F9093700091E0909390
:100AD000B0009091B100987F94609093B100109213
:100AE000B300E2CFCF93DF93CDB7DEB7AA970FB6AF
:100AF000F894DEBF0FBECDBF789484B5826084BD0C
:100B000084B5816084BD85B5826085BD85B5816011
:100B100085BD80916E00816080936E00109281008F
:100B2000809181008260809381008091810081604A
:100B3000809381008091800081608093800080910B
:100B4000B10084608093B1008091B0008160809397
:100B5000B00080917A00846080937A0080917A005E
:100B6000826080937A0080917A00816080937A001D
:100B700080917A00806880937A001092C10080E1B1
:100B8000EFE0F1E08E010F5F1F4FD80101900D9251
:100B90008A95E1F768015E0121E1A20EB11CD60140
:100BA0008C91B2E0CB0ED11C62E00E940D01CA1400
:100BB000DB04A9F761E086E00E940D0161E084E0BA
:100BC0000E940D0161E085E00E940D010E940C026F
:100BD00080914603909147031816190634F441E0BA
:100BE0006CE090E080E00E94C10380914603909108
:100BF00047031816190634F44CE06AE090E080E0F0
:100C00000E94C1030E943E040E94A2018EE691E070
:100C10000E94720464E873E080E090E00E94630147
:100C200085E791E00E94720460EB74E080E090E060
:100C30000E9463018AE791E00E94720460E273E01F
:100C400080E090E00E9463010E943E046CE271E04B
:100C500080E090E00E946301FE017D961F0183E821
:100C6000C82E81E0D82E99E0F92E24E0A22EB12CD6
:100C700080910A018F93809109018F93DF92CF9227
:100C80001F92FF921F930F930E945F0CC8010E9456
:100C9000720490E080E00E94CD010FB6F894DEBFB0
:100CA0000FBECDBF882379F08091090190910A0190
:100CB0000196853091050CF06FC190930A018093E5
:100CC00009010E94BB0381E090E00E94CD018823CE
:100CD00079F08091090190910A0101978230910584
:100CE0000CF45DC190930A01809309010E94BB033B
:100CF00082E090E00E94CD01882309F455C10E9452
:100D0000BB030E94A201B9E0FB2EAEE8CA2EA1E00F
:100D1000DA2E809106018F93809105018F93DF92E7
:100D2000CF921F92FF921F930F930E945F0CC801F6
:100D30000E94720490E080E00E94CD010FB6F8940A
:100D4000DEBF0FBECDBF882379F080910501909161
:100D5000060105968D3391050CF02DC19093060187
:100D6000809305010E94BB0381E090E00E94CD01C9
:100D7000882379F0809105019091060105978530CF
:100D800091050CF41FC190930601809305010E9408
:100D9000BB0382E090E00E94CD01882309F419C1D1
:100DA0000E94BB0378E9C72E71E0D72EAA24A39432
:100DB000B12CF4E18F2E912C809104018F938091BE
:100DC00003018F93DF92CF921F92FF921F930F9395
:100DD0000E945F0CC8010E94720490E080E00E94B3
:100DE000CD010FB6F894DEBF0FBECDBF882379F0DA
:100DF00080910301909104010196853191050CF0D9
:100E0000EFC090930401809303010E94BB0381E033
:100E100090E00E94CD01882379F0809103019091A8
:100E200004010197181619060CF0DFC09093040115
:100E3000809303010E94BB0382E090E00E94CD01F9
:100E4000882309F4D7C00E94BB0352EAC52E51E0A3
:100E5000D52E6AE0A62EB12C809102018F9380914D
:100E600001018F93DF92CF921F92FF921F930F93F6
:100E70000E945F0CC8010E94720490E080E00E9412
:100E8000CD010FB6F894DEBF0FBECDBF882379F039
:100E9000809101019091020101968B3091050CF037
:100EA000B0C090930201809301010E94BB0381E0D6
:100EB00090E00E94CD01882369F08091010190911A
:100EC0000201019797FDA2C0909302018093010156
:100ED0000E94BB0382E090E00E94CD01882309F4C8
:100EE0009AC00E94BB038CEA91E00E94720460E504
:100EF00070E088EB91E00E941C0260E570E084E9FC
:100F000092E00E941C0260EA70E080E793E00E9499
:100F10001C026CEB72E080E090E00E9463010E9492
:100F200096012B013C018FEF9FEF90930801809376
:100F30000701C0900501D0900601809107019091B2
:100F4000080197FF51C10E9496016419750986092D
:100F5000970928EE33E040E050E00E94F30BC21AFC
:100F6000D30A1C141D040CF45DC085EB91E00E94B3
:100F7000720468EC70E080E991E00E941C026EE56A
:100F800071E08CE291E00E941C0264E175E080E077
:100F900090E00E946301B9CE82E090E08ECEB092E4
:100FA0000A01A0920901A2CE64E170E080E090E025
:100FB0000E9463015DCEE5E0F0E0F0930601E0936E
:100FC0000501D0CE2CE330E03093060120930501DB
:100FD000DECE64E170E080E090E00E94630199CE93
:100FE000B0920401A092030110CF9092040180926C
:100FF000030120CF64E170E080E090E00E94630193
:10100000DBCE10920201109201014FCFB09202018B
:10101000A09201015DCF64E170E080E090E00E9469
:1010200063011ACFF6E0CF16D1040CF0C0C00E94C5
:10103000960120E931E040E050E00E94F30B20FDF2
:10104000B6C06EEB71E0C8010E94580CC8010E9446
:1010500072044FE5842E41E0942EB12CA12CC09057
:101060000901D0900A01AC14BD0474F4F40180812C
:10107000F2E08F0E911C0E94B600892B09F0A9C0E6
:10108000B0920801A092070181E00E94B600892B6E
:1010900009F034C38091BE0281110DC00E949601F7
:1010A0006093890270938A0280938B0290938C02E2
:1010B00081E08093BE028091BE02882309F48DC036
:1010C0000E9496018090890290908A02A0908B02E3
:1010D000B0908C02681979098A099B09613D7740B3
:1010E0008105910508F479C01092BE0264E670E0B3
:1010F00088EE93E00E941C0264E670E080EB94E0CE
:101100000E941C026AEF70E08CED95E00E941C02C8
:1011100081ED91E00E9472046CED75E080E090E05A
:101120000E9463012BEC32E0CE0101965C0150E09D
:1011300040E04C155D050CF425C291E0C91AD108B8
:10114000960150E040E04C155D050CF02DC2C50144
:1011500070E060E0621773070CF021C26F5F7F4F91
:10116000DC011196ED90FC9012971896ED91FC9190
:10117000EE16FF06D4F4E7E0FE2EFC01D10101904B
:101180000D92FA94E1F7F7E0FF2EFC013796DC01AF
:1011900001900D92FA94E1F7A7E0FA2EF101DC013B
:1011A000179601900D92FA94E1F70796D3CFDF924C
:1011B000CF9227EC31E03F932F931F92FF921F9322
:1011C0000F930E945F0C0FB6F894DEBF0FBECDBF29
:1011D0003DCF2FEFA21AB20A42CF68E270E080E062
:1011E00090E00E946301A5CE66E470E088E795E098
:1011F0000E941C0268E270E080E090E00E946301BF
:1012000066E470E088E795E00E941C020E94960167
:101210004B015C01641975098609970928EE33E0D2
:1012200040E050E00E94F30B3601621A730A27E097
:10123000E22E35EE432E31E0532E0E9496016819BE
:1012400079098A099B0928EE33E040E050E00E94CA
:10125000F30B6301C21AD30AD7FC04C196E0C91686
:10126000D10454F40E9496012CE231E040E050E0B9
:101270000E94F30B20FFF9C0DF92CF92809107010B
:1012800090910801E89EF001E99EF00D1124E553CC
:10129000FD4F8081282F082E000C330B3F938F9336
:1012A000AAEDB1E0BF93AF931F92FF923F922F92AE
:1012B0000E945F0C0FB6F894DEBF0FBECDBFC10118
:1012C0000E94720482E090E00E94CD01882309F41C
:1012D000E7C0809107019091080127E0289FF00165
:1012E000299FF00D1124E553FD4F838194810196D0
:1012F0009483838380910301909104012181328141
:10130000280F391F328321839F938F9388E991E0BF
:101310009F938F931F92FF921F930F930E945F0CD6
:10132000C8010E94720461E084E00E94DF0060E076
:1013300085E00E94DF000E94AF0364EA76E080E06F
:1013400090E00E9463010E940C020FB6F894DEBF89
:101350000FBECDBF8091070190910801B7E0DB2E51
:10136000D89EF001D99EF00D1124E553FD4F618107
:101370007281C1010E944A043F922F92809107011D
:1013800090910801D89EF001D99EF00D1124E553EB
:10139000FD4F8081282F082E000C330B3F938F9335
:1013A00088EF91E09F938F931F92FF921F930F936B
:1013B0000E945F0CC8010E94720460E476E080E045
:1013C00090E00E94630180E092E00E9472046CEB66
:1013D00072E080E090E00E9463018BECC82E82E016
:1013E000D82E0FB6F894DEBF0FBECDBF912C812C46
:1013F00098EFA92E91E0B92E8091090190910A01F0
:10140000881699060CF081CCD60111966D917C91CD
:10141000C1010E944A043F922F92F6018081282F39
:10142000082E000C330B3F938F93BF92AF921F9205
:10143000FF921F930F930E945F0CC8010E947204D9
:1014400068E775E080E090E00E946301FFEF8F1A8B
:101450009F0A27E0C20ED11C0FB6F894DEBF0FBE64
:10146000CDBFCACFD12CC12CFDCE80910701909168
:101470000801E89EF001E99EF00D1124E553FD4FAF
:101480008081282F082E000C330B3F938F935F929F
:101490004F921F92FF923F922F920E945F0C0ACFB1
:1014A00083E090E00E94CD01882399F180910701AB
:1014B0009091080127E0289FF001299FF00D112449
:1014C000E553FD4F858196810196968385838091B2
:1014D00001019091020121813281281B390B328355
:1014E00021839F938F9382EA91E09F938F931F9222
:1014F000FF921F930F930E945F0CC8010E94720419
:101500000E9414026CE771E08EE591E00E941C02DB
:1015100014CFCD2881F5809107019091080127E033
:10152000289FF001299FF00D1124E553FD4F85817F
:101530009681019696838583818192812091010114
:1015400030910201821B930B928381838FEE91E095
:101550000E9472040E9414026CE771E08EE591E033
:101560000E941C0264EA76E080E090E00E94630141
:101570000E940C02EFCE68E270E080E090E00E94F2
:1015800063015BCE67E0F901DC0101900D926A9581
:10159000E1F74F5F5F4F295F3F4F0796CACD4F5F1F
:1015A0005F4F21503109CFCD89E092E00E94720453
:1015B00068EE73E080E090E00E946301D12CC12CC2
:1015C0004E01B6E28B0E911C82E1682E82E0782EED
:1015D00099E0F92E8091090190910A01C816D90667
:1015E0007CF5F50161817281C4010E944A04FFEF1C
:1015F000CF1ADF0A9F928F92D5018C91282F082E47
:10160000000C330B3F938F93DF92CF927F926F92B8
:101610001F92FF923F922F920E945F0CC1010E9485
:10162000720464EC79E080E090E00E946301B7E02E
:10163000AB0EB11C0FB6F894DEBF0FBECDBFCACF44
:101640008981282F082E000C330B3F938F938BE159
:1016500092E09F938F931F9289E08F933F922F92F6
:101660000E945F0C0FB6F894DEBF0FBECDBFD12C29
:10167000C12CC0FC30C0C1010E9472040E94AF03A3
:101680006CE771E080E090E00E9463013FEFC31AD5
:10169000D30A87E0C816D10461F7C1010E94720421
:1016A00064EF71E080E090E00E94630185E292E0E7
:1016B0000E9472046CED75E080E090E00E9463018E
:1016C00082E090E00E94CD01811108C062E370E0E9
:1016D00080E090E0F3CF0E943E04D2CF0E943E040F
:1016E0006CE271E080E090E00E94630180E090E0B5
:1016F000892B09F4B4CA0E940000B1CA1092BE023C
:10170000DACCCF93DF93CBE0D0E0D0934103C0930A
:1017100040038DE090E090934303809342038AE07E
:1017200090E0909345038093440381E090E0909390
:1017300047038093460361E08BE00E940D0161E066
:10174000809142030E940D0161E0809144030E9458
:101750000D0161E0809144030E94DF00D0934103BA
:10176000C0934003E0E0F3E0119283E0E034F80737
:10177000D9F7D0E0C0E08091460390914703C817A5
:10178000D90774F540E06FE0CE010E94C10380915B
:10179000460390914703C817D9072CF447E06BE044
:1017A000CE010E94C10340E069E0CE010E94C10366
:1017B0008091460390914703C817D9071CF4CE01C6
:1017C0000E941E048091460390914703C817D907D1
:1017D0002CF440E06CE0CE010E94C1032196CBCFF7
:1017E000DF91CF910895A1E21A2EAA1BBB1BFD0128
:1017F0000DC0AA1FBB1FEE1FFF1FA217B307E407F0
:10180000F50720F0A21BB30BE40BF50B661F771F47
:10181000881F991F1A9469F7609570958095909527
:101820009B01AC01BD01CF010895052E97FB1EF46D
:1018300000940E942C0C57FD07D00E94F30B07FC6C
:1018400003D04EF40C942C0C509540953095219576
:101850003F4F4F4F5F4F08959095809570956195DC
:101860007F4F8F4F9F4F08950E94410CB7FF0895FF
:10187000821B930B0895EE0FFF1F0590F491E02D4E
:101880000994A29FB001B39FC001A39F700D811D59
:101890001124911DB29F700D811D1124911D089579
:1018A0009111089581568A5108F4805285580895FF
:1018B000FB01DC0101900D920020E1F70895AEE0FC
:1018C000B0E0E5E6FCE00C941B0F0D891E898F89C2
:1018D000988D26E02C831A83098397FF02C080E04D
:1018E00090E801979E838D83AE01455E5F4F698DC1
:1018F0007A8DCE0101960E948F0C4D815E8157FD3D
:101900000AC02F813885421753070CF49A01020F41
:10191000131FF80110822E96E4E00C94370FABE011
:10192000B0E0E5E9FCE00C940D0F7C013B018A017D
:10193000FC0117821682838181FFC8C1CE01019606
:101940005C01F7019381F30193FD859193FF8191F0
:101950003F01882309F453C1853239F493FD859101
:1019600093FF81913F01853229F4B70190E00E94F5
:101970007F0EE7CF912C212C312CFFE1F31538F0AD
:101980008B3211F190F4803209F1833229F137FC66
:101990003CC020ED280F2A3050F536FE20C08AE0EA
:1019A000989E200D1124922E06C08D3291F0803326
:1019B00071F7689430F8F30193FD859193FF81915D
:1019C0003F018111DACF21C0689431F8689432F870
:1019D000F2CF689433F8EFCF689434F8ECCFEAE0B4
:1019E0002E9E200D1124222E689435F8E4CF8E32DD
:1019F00029F436FC04C1689436F8DDCF8C3619F42E
:101A0000689437F8D8CF8836B1F2982F9F7D9554D7
:101A10009330E0F08336A1F18337C1F1833509F0CB
:101A200063C02801F2E04F0E511CF801C080D18044
:101A3000692D70E036FC02C06FEF7FEFC6010E9497
:101A4000690E4C01689437F882010AC00C5F1F4F81
:101A5000FFE3F98388248394912C6501E89437F897
:101A600033FE2DC0522C8114910471F5552009F4D8
:101A700068CFB70180E290E00E947F0E5A94F6CFC3
:101A8000F801808189830E5F1F4FE4CF2801F2E0C7
:101A90004F0E511CF801C080D180692D70E036FCDA
:101AA00002C06FEF7FEFC6010E94740E4C018201ED
:101AB000D5CFB70180E290E00E947F0E2A942814CF
:101AC000190409F0B0F7CECFF60137FC859137FE47
:101AD00081916F01B70190E00E947F0E51105A94DE
:101AE000F1E08F1A9108BFCF843619F0893609F0DA
:101AF00077C0F80137FE6BC060817181828193816C
:101B00000C5F1F4FF32DFF763F2E97FF09C0909576
:101B10008095709561957F4F8F4F9F4F689437F8F0
:101B20002AE030E0A5010E94AF0EC82ECA188C2C06
:101B3000432C36FE0CC0E89440F8C91440F434FE3F
:101B400005C032FC03C0F32DFE7E4F2E892C44FECF
:101B500095C0FE01EC0DF11D8081803309F087C036
:101B6000242D297E422E842D8870582E43FC95C04A
:101B700040FE8FC09C2C821418F42C0C922C9818C8
:101B800044FE91C0B70180E390E00E947F0E42FEC8
:101B900009C088E790E041FE02C088E590E0B70107
:101BA0000E947F0EC91408F48AC0CA94D12C9FEFFA
:101BB000C91AD90ACA0CDB1CF60182916F01B70160
:101BC00090E00E947F0EAC14BD04B1F74FCF60814E
:101BD0007181072E000C880B990B0E5F1F4F92CF5F
:101BE000D32CE894D4F82AE030E0853739F1232D5E
:101BF000297FD22E8F3601F148F48835A9F0F701FC
:101C0000868197812B96E2E10C94290F803749F069
:101C10008837A9F7D4FE02C06894D2F820E130E0FA
:101C20000DC06894D4F8F6CF34FE03C0822F8660CE
:101C3000D82E20E132E002C028E030E0F801D7FEE3
:101C40000FC060817181828193810C5F1F4FA5015C
:101C50000E94AF0EC82ECA183D2CE89437F867CF03
:101C60006081718190E080E00E5F1F4FF0CF42FCF9
:101C700002C0839478CF8394839475CF842D867823
:101C800009F471CFF6CFB70180E290E00E947F0E99
:101C900083948214C0F3512C73CF522C58188214A1
:101CA00008F46ECFF8CF842D867809F47BCF8BE2D1
:101CB00041FE80E247FC8DE2B70190E071CFB701B1
:101CC00080E390E00E947F0E9A946CCF8FEF9FEF9D
:101CD00099CFFC010590615070400110D8F78095B4
:101CE00090958E0F9F1F0895FC01615070400190E8
:101CF0000110D8F7809590958E0F9F1F08950F9330
:101D00001F93CF93DF93182F092FEB018B8181FD58
:101D100009C01FEF0FEF812F902FDF91CF911F91FF
:101D20000F91089582FF14C02E813F818C819D8187
:101D3000281739073CF4E881F981CF01019699838E
:101D4000888310838E819F8101969F838E83E3CF4A
:101D5000E885F985812F0995892BA1F3DACFFA015E
:101D6000AA27283051F1203181F1E8946F936E7FDA
:101D70006E5F7F4F8F4F9F4FAF4FB1E03ED0B4E0CB
:101D80003CD0670F781F891F9A1FA11D680F791F0C
:101D90008A1F911DA11D6A0F711D811D911DA11D1D
:101DA00020D009F468943F912AE0269F112430192D
:101DB000305D3193DEF6CF010895462F4770405DC8
:101DC0004193B3E00FD0C9F7F6CF462F4F70405D77
:101DD0004A3318F0495D31FD4052419302D0A9F7D2
:101DE000EACFB4E0A6959795879577956795BA95CC
:101DF000C9F700976105710508959B01AC010A2E92
:101E000006945795479537952795BA95C9F7620F68
:101E1000731F841F951FA01D08952F923F924F920C
:101E20005F926F927F928F929F92AF92BF92CF926A
:101E3000DF92EF92FF920F931F93CF93DF93CDB773
:101E4000DEB7CA1BDB0B0FB6F894DEBF0FBECDBFEB
:101E500009942A88398848885F846E847D848C84BC
:101E60009B84AA84B984C884DF80EE80FD800C81C5
:101E70001B81AA81B981CE0FD11D0FB6F894DEBFA8
:0C1E80000FBECDBFED010895F894FFCF18
:101E8C00FF05000A000F00FFFF040041424344021B
:101E9C00000300000001000700080009000C00000E
:101EAC000000000000000000000000000100007EA7
:101EBC00306D79335B5F707F7B00000000000000A9
:101ECC00771F4E3D4F475E37303C370E76257E6789
:101EDC0073055B0F3E0000003B000000000008078C
:101EEC0000080009000C00256325303364005354AE
:101EFC004943323400515549320020434F4E464934
:101F0C004720004A4F554555522025316400544511
:101F1C004D505320253264004F4B20202020253279
:101F2C0064004E4F4B202020253264002020474F68
:101F3C00202020200045434F554C452020002D2DBE
:101F4C002D2D20202020002D2D2D2D2020253264FC
:101F5C000046494E204A455520002563202020206C
:101F6C0020253264002563202020202020200054CE
:101F7C00524F5020544152002563202020257300DD
:101F8C0053434F524553202000434C4153534D541F
:101F9C00200025642563202025730057494E2020FE
:0E1FAC0020256320005245535441525420001A
:00000001FF
