:020000040000FA
:100000000C945D000C9485000C9485000C94850084
:100010000C9485000C9485000C9485000C9485004C
:100020000C9485000C9485000C9485000C9485003C
:100030000C9485000C9485000C9485000C9485002C
:100040000C9419020C9485000C9485000C94850086
:100050000C9485000C9485000C9485000C9485000C
:100060000C9485000C94850000000008000201003B
:100070000003040700000000000000000000000072
:10008000250028002B0000000000240027002A0083
:10009000040404040404040402020202020203032E
:1000A0000303030301020408102040800102040836
:1000B0001020010204081020DF0211241FBECFEF20
:1000C000D8E0DEBFCDBF11E0A0E0B1E0E0EBF6E0AC
:1000D00002C005900D92A835B107D9F721E0A8E537
:1000E000B1E001C01D92A93BB207E1F710E0CDE5F8
:1000F000D0E004C02197FE010E944803CC35D1070F
:10010000C9F70E9463020C9456030C94000090E01F
:10011000FC01EC55FF4F249180579F4FFC018491C7
:10012000882399F090E0880F991FFC01EA57FF4F50
:10013000A591B491FC01E458FF4F859194918FB73C
:10014000F894EC91E22BEC938FBF089590E0FC01C2
:10015000E859FF4F2491FC01EC55FF4F3491FC010D
:10016000E057FF4FE491EE23C9F0222339F023300A
:1001700001F1A8F4213019F1223029F1F0E0EE0F5D
:10018000FF1FE458FF4FA591B4918FB7F894EC91FD
:10019000611126C030953E233C938FBF08952730D0
:1001A000A9F02830C9F0243049F7809180008F7D74
:1001B00003C0809180008F7780938000DFCF84B56B
:1001C0008F7784BDDBCF84B58F7DFBCF8091B0006E
:1001D0008F778093B000D2CF8091B0008F7DF9CF20
:1001E0003E2BDACF3FB7F89480915D0190915E018C
:1001F000A0915F01B091600126B5A89B05C02F3F7B
:1002000019F00196A11DB11D3FBFBA2FA92F982F3C
:100210008827BC01CD01620F711D811D911D42E037
:10022000660F771F881F991F4A95D1F708958F92FF
:100230009F92AF92BF92CF92DF92EF92FF920E9475
:10024000F2004B015C018CEDC82E85E0D82EE12C2C
:10025000F12C0E94F200681979098A099B09683E0D
:10026000734081059105A8F321E0C21AD108E10885
:10027000F10888EE880E83E0981EA11CB11CC11401
:10028000D104E104F10429F7FF90EF90DF90CF90C3
:10029000BF90AF909F908F900895CF92DF92EF9292
:1002A000FF920F931F93CF93DF9300D0CDB7DEB7AC
:1002B00069834A83880F991F0091B7011091B80193
:1002C000000F111FE1E6F1E09F0121563140201798
:1002D000310714F41192F8CF2981FC01EF59FE4F38
:1002E00021838A81808360E08091B5010E94A6000D
:1002F0001016110604F501501109F801EF59FE4FCF
:10030000E080D090B301C090B10188E0F82E6E2D4E
:10031000661F6627661F8C2D0E94A600EE0C61E00A
:100320008D2D0E94A60060E08D2D0E94A600FA94FB
:10033000F110EDCFDDCF61E08091B5010F900F900E
:10034000DF91CF911F910F91FF90EF90DF90CF90B1
:100350000C94A600EF92FF921F93CF93DF9320910E
:10036000B7013091B80182179307B4F4EC0123E090
:10037000880F991F2A95E1F79C012F583E4F79016C
:1003800011E0F70111927F0140E0612FCE010E9440
:100390004D011F5F1930A9F7DF91CF911F91FF9099
:1003A000EF900895EF92FF920F931F93CF93DF93F7
:1003B000EC0190E080E00E94AA01FE010190002083
:1003C000E9F731977F01EC1AFD0A8E01D0E0C0E019
:1003D000CE15DF053CF5C830D10521F1F80181913A
:1003E0008F01082E000C990B0E944E03809740E06D
:1003F0008034910520F480509F4FFC014081809112
:10040000B7019091B8011816190654F4FE01EF597E
:10041000FE4F408B6C2F6F5F90E080E00E944D019B
:100420002196D6CFDF91CF911F910F91FF90EF9042
:1004300008951F920F920FB60F9211242F933F939E
:100440008F939F93AF93BF938091590190915A01DD
:10045000A0915B01B0915C013091580123E0230F22
:100460002D3758F50196A11DB11D20935801809399
:10047000590190935A01A0935B01B0935C01809164
:100480005D0190915E01A0915F01B09160010196C4
:10049000A11DB11D80935D0190935E01A0935F014A
:1004A000B0936001BF91AF919F918F913F912F9138
:1004B0000F900FBE0F901F90189526E8230F0296FD
:1004C000A11DB11DD2CF789484B5826084BD84B55E
:1004D000816084BD85B5826085BD85B5816085BD3F
:1004E00080916E00816080936E00109281008091F7
:1004F000810082608093810080918100816080937F
:100500008100809180008160809380008091B100A3
:1005100084608093B1008091B00081608093B000CE
:1005200080917A00846080937A0080917A00826062
:1005300080937A0080917A00816080937A00809124
:100540007A00806880937A001092C1008091B70190
:100550009091B8011816190634F441E06CE090E06F
:1005600080E00E944D018091B7019091B80118166A
:10057000190634F448E06AE090E080E00E944D0102
:1005800090E080E00E94AA0180E491E00E94D20104
:100590000E94170186E491E00E94D2010E94170197
:1005A00090E080E00E94AA01C0E0D0E08FE491E0FA
:1005B0000E94D2012097D1F30E940000F7CFCF9381
:1005C000DF93CBE0D0E0D093B201C093B1018DE0D6
:1005D00090E09093B4018093B3018AE090E090930F
:1005E000B6018093B50181E090E09093B8018093CB
:1005F000B7018BE00E9487008091B3010E948700C1
:100600008091B5010E94870061E08091B5010E9450
:10061000A600D093B201C093B101E1E7F1E081EB14
:1006200091E011928E179F07E1F7D0E0C0E0809132
:10063000B7019091B801C817D9073CF540E06FE0C9
:10064000CE010E944D018091B7019091B801C81769
:10065000D9072CF447E06BE0CE010E944D0140E049
:1006600069E0CE010E944D01CE010E94AA01809155
:10067000B7019091B801C817D9072CF440E06CE09D
:10068000CE010E944D012196D2CFDF91CF910895E6
:10069000EE0FFF1F0590F491E02D0994911108953C
:1006A00081568A5108F4805285580895F894FFCFF6
:1006B0000000000000000000000000000001000039
:1006C0007E306D79335B5F707F7B00000000006BD4
:1006D00000771F4E3D4F475E37303C000E76257E3B
:1006E0006700055B0F3E00000000000000000008EE
:1006F00048454C4C4F004A455520535449430062ED
:080700006F6E6A6F7572000054
:107E0000112484B714BE81FFF0D085E080938100F7
:107E100082E08093C00088E18093C10086E0809377
:107E2000C20080E18093C4008EE0C9D0259A86E02C
:107E300020E33CEF91E0309385002093840096BBD3
:107E4000B09BFECF1D9AA8958150A9F7CC24DD24C4
:107E500088248394B5E0AB2EA1E19A2EF3E0BF2EE7
:107E6000A2D0813461F49FD0082FAFD0023811F036
:107E7000013811F484E001C083E08DD089C08234E0
:107E800011F484E103C0853419F485E0A6D080C0E4
:107E9000853579F488D0E82EFF2485D0082F10E0AE
:107EA000102F00270E291F29000F111F8ED06801E7
:107EB0006FC0863521F484E090D080E0DECF843638
:107EC00009F040C070D06FD0082F6DD080E0C81688
:107ED00080E7D80618F4F601B7BEE895C0E0D1E017
:107EE00062D089930C17E1F7F0E0CF16F0E7DF06D8
:107EF00018F0F601B7BEE89568D007B600FCFDCFD4
:107F0000A601A0E0B1E02C9130E011968C91119780
:107F100090E0982F8827822B932B1296FA010C0160
:107F200087BEE89511244E5F5F4FF1E0A038BF0790
:107F300051F7F601A7BEE89507B600FCFDCF97BE46
:107F4000E89526C08437B1F42ED02DD0F82E2BD052
:107F50003CD0F601EF2C8F010F5F1F4F84911BD097
:107F6000EA94F801C1F70894C11CD11CFA94CF0C13
:107F7000D11C0EC0853739F428D08EE10CD085E9AC
:107F80000AD08FE07ACF813511F488E018D01DD067
:107F900080E101D065CF982F8091C00085FFFCCF94
:107FA0009093C60008958091C00087FFFCCF809118
:107FB000C00084FD01C0A8958091C6000895E0E648
:107FC000F0E098E1908380830895EDDF803219F02E
:107FD00088E0F5DFFFCF84E1DECF1F93182FE3DFCA
:107FE0001150E9F7F2DF1F91089580E0E8DFEE27F6
:047FF000FF270994CA
:027FFE00040479
:00000001FF
